:100000000C942A000C9447000C9447000C94470071
:100010000C9447000C9447000C9447000C948709FB
:100020000C9447000C9447000C9447000C943D0B33
:100030000C9447000C9447000C9447000C94470024
:100040000C9447000C9447000C9447000C94470014
:100050000C94470011241FBECFE5D8E0DEBFCDBF12
:1000600011E0A0E6B0E0E0E5F9E102C005900D92F4
:10007000A631B107D9F711E0A6E1B1E001C01D92A8
:10008000A932B107E1F70E94AB0B0C94A60C0C94BB
:100090000000FC0185818C3089F18D3070F4833053
:1000A000A9F1843028F48823B1F18130B1F531C051
:1000B000863049F1883089F524C08232B9F0833224
:1000C00028F48031C9F0893141F513C0873641F0F9
:1000D0008F3C19F0833309F506C089B18F6C1CC0C1
:1000E00089B1876619C089B1836316C089B18262FC
:1000F00013C089B1896110C04C9A0FC089B18C605E
:100100000BC04B9A0AC089B1866006C089B1836072
:1001100003C0489A02C089B189B98081803899F0BA
:10012000803CB1F480911701282F206C2093170197
:100130009481903819F0913859F403C02093170135
:1001400007C0816C03C080911701806880931701FC
:100150008181803A41F0803B51F0803869F4809190
:100160001701806807C080911701806A03C08091E1
:100170001701806B809317018381823871F0833877
:1001800018F48038B9F405C0843859F0863891F4F1
:100190000CC08091170180680BC0809117018268A4
:1001A00007C080911701846803C080911701866899
:1001B000809317018281803819F0883851F404C087
:1001C00080911701806803C080911701886880932F
:1001D00017018091170180BD8681803131F088310F
:1001E00031F0883039F4539A0895549A08958AB1B9
:1001F00088618AB9089598EC5D9902C09150E1F741
:100200008CB9089588EC5F9902C08150E1F78CB1F8
:100210000895FC0180818370482F50E041305105E2
:1002200009F487C04230510509F4A0C141155105B8
:1002300009F02BC281819281009731F080389105BD
:1002400029F483B7806801C083B783BF23813481D9
:1002500028343105D1F02934310508F52034310531
:1002600089F021343105D8F42115310521F02830E9
:100270003105A9F40DC083B783BF109227011092F6
:1002800026010DC083B7806405C083B7886402C0AF
:1002900083B7886083BF309327012093260187812D
:1002A00090858031910571F08131910518F4892B89
:1002B00039F011C08032910541F0C09761F408C057
:1002C00083B708C083B7806105C083B7806202C06E
:1002D00083B7806383BF8581968182309105C9F0A1
:1002E0008330910530F4009771F0019709F0CDC18A
:1002F0000CC084309105A9F08430910570F0059709
:1003000009F0C3C112C083B702C083B7816083BF45
:10031000BCC183B7826083BFA0C183B7836083BF42
:10032000A2C183B7846083BFA4C183B7856083BF44
:10033000A6C181819281009789F00197C9F48185D6
:100340009285009719F0019799F404C08EB59FB576
:1003500094600CC08EB59FB5986008C08185928569
:10036000009711F0019721F48EB59FB59FBD8EBD0A
:100370002381348182E02030380709F451C082E0C3
:1003800021303807F8F42831310509F46EC02931DD
:10039000310540F421153105B1F12830310509F05E
:1003A00077C046C081E02830380709F445C081E0B5
:1003B0002831380709F45DC081E02030380709F0A2
:1003C00067C02AC083E02030380771F183E0213014
:1003D000380750F482E02830380799F182E0203164
:1003E000380709F055C037C083E020313807C1F124
:1003F00083E02831380709F441C083E0283038070A
:1004000009F046C023C08EB59FB59FBD8EBD10922A
:100410002701109226013CC08EB59FB5916032C075
:100420008EB59FB592602EC08EB59FB593602AC0E1
:100430008EB59FB5886026C08EB59FB588609160E7
:1004400021C08EB59FB5886092601CC08EB59FB5E7
:100450008860936017C08EB59FB58061926012C0AE
:100460008EB59FB5806193600DC08EB59FB58861D4
:1004700009C08EB59FB58861916004C08EB59FB5E7
:10048000886193609FBD8EBD309327012093260124
:100490008781908520E38030920731F120E381301D
:1004A000920758F420E180309207B1F020E28030CA
:1004B0009207B1F0892B69F028C020E880309207BC
:1004C000D9F020EC80309207D9F080509044E9F4C4
:1004D0000FC08EB59FB517C08EB59FB5906113C084
:1004E0008EB59FB590620FC08EB59FB590630BC05F
:1004F0008EB59FB5906407C08EB59FB5906803C058
:100500008EB59FB5906C9FBD8EBD858196818230E2
:100510009105D1F08330910530F4009771F0019787
:1005200009F0B3C00DC084309105B1F0843091055D
:1005300078F0059709F0A9C013C08EB59FB513C018
:100540008EB59FB581600FC08EB59FB582600BC020
:100550008EB59FB5836007C08EB59FB5846003C01C
:100560008EB59FB585609FBD8EBD8FC08181928104
:10057000009731F08038910529F485B5806801C075
:1005800085B585BD2381348128343105D1F02934E6
:10059000310508F52034310589F021343105D8F4CE
:1005A0002115310521F028303105A9F40DC085B59C
:1005B00085BD10922701109226010DC085B580647B
:1005C00005C085B5886402C085B5886085BD309357
:1005D000270120932601878190858031910571F054
:1005E0008131910518F4892B39F011C080329105C1
:1005F00041F0C09761F408C085B508C085B5806139
:1006000005C085B5806202C085B5806385BD8585DE
:100610009685089719F482B5886082BD8581968198
:1006200082309105B9F08330910528F4009761F08C
:10063000019759F50BC084309105C1F084309105C4
:1006400078F0059711F518C085B502C085B58160B1
:1006500085BD1BC085B5826085BD88E090E011C076
:1006600085B5836085BD80E490E00BC085B584606E
:1006700085BD80E890E005C085B5856085BD80E0DA
:1006800094E09093190180931801838594850197D4
:1006900091F54130510579F042305105E9F0452B93
:1006A00051F5838194810097F9F08034910519F513
:1006B00089B782601BC083819481009719F00897E5
:1006C000D1F403C089B7846011C081859285892BDC
:1006D00091F489B780610AC083819481009721F0E9
:1006E0008034910541F404C089B7816089BF0895C1
:1006F00089B7826089BF0895FC018081837090E092
:10070000009719F0019709F502C06CBF0895878121
:10071000908520E38030920781F020E381309207BA
:1007200020F48050904289F408C020E8803092077D
:1007300051F08050904C49F403C079BD68BD0895D4
:100740007BBD6ABD08957BBD6ABD0895FC018081B3
:100750008370813011F477BD66BD0895FC018081FE
:10076000837090E08130910539F08230910589F0F5
:10077000892B81F46CBF089581859285009719F0CB
:10078000019741F403C07BBD6ABD089579BD68BD82
:10079000089563BD0895FC018081837090E08130ED
:1007A000910549F08230910561F0892B69F483B796
:1007B000887F83BF08958EB59FB5887F9FBD8EBD0E
:1007C000089585B5887F85BD0895FC01808183707B
:1007D00090E081309105B9F18230910509F464C04F
:1007E000892B09F09CC08581968182309105C9F0E2
:1007F0008330910530F4009771F0019709F08FC0B4
:100800000CC084309105A9F08430910570F00597F3
:1008100009F085C012C083B702C083B7816083BF6F
:10082000089583B7826083BF5EC083B7836083BF50
:1008300060C083B7846083BF62C083B7856083BFB5
:1008400080E094E05EC08581968182309105D1F090
:100850008330910530F4009771F0019709F05FC083
:100860000DC084309105B1F08430910578F0059782
:1008700009F055C013C08EB59FB513C08EB59FB596
:1008800081600FC08EB59FB582600BC08EB59FB5DD
:10089000836007C08EB59FB5846003C08EB59FB5D9
:1008A00085609FBD8EBD08958581968182309105BA
:1008B000B9F08330910528F4009761F0019779F53C
:1008C0000BC084309105C1F08430910578F0059714
:1008D00031F51CC085B502C085B5816085BD089520
:1008E00085B5826085BD88E090E00BC085B58360EA
:1008F00085BD80E490E005C085B5846085BD80E855
:1009000090E09093190180931801089585B5856052
:1009100085BD80E094E090931901809318010895BB
:10092000FC0180818823A1F08031A1F46C9A83813D
:10093000813039F0813060F0823029F0833051F419
:1009400004C0689A07C0699A05C08DB1836001C070
:100950008DB18DB98281882319F0843029F403C0C8
:100960008DB18DB901C06A9A8181882319F08830D0
:1009700029F403C08DB18DB901C06B9A858188239C
:1009800021F0803221F46D9A02C08DB18DB96E9A3A
:1009900008958FB988EC01C08150779903C08823EE
:1009A000D9F704C0882311F08FB1089508958FB747
:1009B00080688FBF08958FB78F778FBF0895FC0130
:1009C0008081837090E08130910541F08230910503
:1009D00049F0892B51F48BB78F7B02C08BB78F778F
:1009E0008BBF08958BB78F7D8BBF0895CF93DF9317
:1009F000EC010E94D7048881837090E081309105DA
:100A000039F08230910539F0892B51F483E004C02C
:100A100083E063E002C081E062E040E00E941706EC
:100A20009881892F8370282F30E02130310599F18A
:100A30002230310509F45AC02115310509F067C08B
:100A4000969596959370892F90E08130910581F06D
:100A5000823091051CF4892B41F059C082309105F8
:100A600069F0039709F053C010C085B7826008C0D1
:100A700085B7826085BF85B78E7F05C085B78D7FBE
:100A800085BF85B7816085BF4AC085B7826085BF55
:100A900085B7816029C0969596959370892F90E0CF
:100AA0008130910579F0823091051CF4892B39F061
:100AB0002EC08230910561F0039749F510C085B7CB
:100AC000886008C085B7886085BF85B78B7F05C003
:100AD00085B7877F85BF85B7846085BF23C085B70D
:100AE000886085BF85B7846085BF11C0969596954F
:100AF0009370892F90E0009719F0019741F403C09B
:100B000084B7806402C084B78F7B84BF0EC021305D
:100B1000310541F02230310541F0232B49F48BB7E8
:100B2000806405C08BB7806802C08BB780628BBFC2
:100B3000DF91CF910895843008F077C0683008F0D5
:100B400074C04130B1F5813099F0813030F082309D
:100B5000D1F0833009F067C021C02BB381E090E071
:100B600002C0880F991F6A95E2F7282B2BBB5BC048
:100B700028B381E090E002C0880F991F6A95E2F7E0
:100B8000282B28BB50C025B381E090E002C0880F1D
:100B9000991F6A95E2F7282B25BB45C022B381E057
:100BA00090E002C0880F991F6A95E2F7282B22BBBC
:100BB0003AC04423C1F5813099F0813028F0823069
:100BC000D9F0833081F524C02BB381E090E002C0DE
:100BD000880F991F6A95E2F7809582238BBB23C00B
:100BE00028B381E090E002C0880F991F6A95E2F770
:100BF0008095822388BB17C025B381E090E002C0B6
:100C0000880F991F6A95E2F78095822385BB0BC0F8
:100C100022B381E090E002C0880F991F6A95E2F745
:100C20008095822382BB80E0089581E0089584301E
:100C300008F077C0683008F074C04130B1F58130F9
:100C400099F0813030F08230D1F0833009F067C004
:100C500021C02AB381E090E002C0880F991F6A95F5
:100C6000E2F7282B2ABB5BC027B381E090E002C0EB
:100C7000880F991F6A95E2F7282B27BB50C024B331
:100C800081E090E002C0880F991F6A95E2F7282B57
:100C900024BB45C021B381E090E002C0880F991FBA
:100CA0006A95E2F7282B21BB3AC04423C1F5813075
:100CB00099F0813028F08230D9F0833081F524C05A
:100CC0002AB381E090E002C0880F991F6A95E2F78D
:100CD000809582238ABB23C027B381E090E002C0C5
:100CE000880F991F6A95E2F78095822387BB17C00A
:100CF00024B381E090E002C0880F991F6A95E2F763
:100D00008095822384BB0BC021B381E090E002C0B8
:100D1000880F991F6A95E2F78095822381BB80E056
:100D2000089581E00895FA018430E0F46830D0F449
:100D3000813049F0813028F0823039F0833081F4FD
:100D400006C089B305C086B303C083B301C080B3B6
:100D500090E002C0959587956A95E2F7817080834F
:100D600080E0089581E00895843010F081E00895D6
:100D7000813049F0813028F0823039F0833031F40D
:100D800007C06ABB03C067BB01C064BB80E00895B5
:100D900061BB80E00895843010F081E008958130D7
:100DA00049F0813028F0823039F0833031F407C0C7
:100DB0006BBB03C068BB01C065BB80E0089562BB2C
:100DC00080E008953E9A3F983D98309A319A329A41
:100DD00086B1807E86B90895FC01379A369A98ECE0
:100DE00001C0915086B1829586958695837080FF6B
:100DF00003C09923B1F70895992321F084B195B1E7
:100E000091838083089537980895FC018081982FFD
:100E10009370E62FF0E082FF05C0E05AFF4F892F64
:100E2000608105C0E05AFF4F60816095892F0E9464
:100E3000CB060895FC01808183706FEF0E94B40699
:100E40000895DF92EF92FF920F931F93CF93DF935A
:100E5000EC01062FD22E442319F04130D1F506C003
:100E600010E090E1E92E97E2F92E31C010E080E128
:100E7000E82E87E2F82E14C0002329F0013039F45F
:100E800080E061E002C080E068E00E94CB06C7011C
:100E90000197F1F78881837060E00E94CB061F5FA5
:100EA0001D1550F316C0002329F0013039F480E0FD
:100EB00063E002C080E06CE00E94CB06C7010197AE
:100EC000F1F78881837060E00E94CB061F5F1D15DB
:100ED00050F3DF91CF911F910F91FF90EF90DF9032
:100EE00008950F931F938C01FC01808183706FE044
:100EF0000E94B406F8018081837060E00E94CB06F6
:100F00001F910F910895CF93DF93EC018981982F62
:100F100098708370992339F0688140E00E949B05A6
:100F20008981877F06C0688141E00E949B05898195
:100F300088608983DF91CF910895FC01918192FFB0
:100F400008C0892F877F8183892F8370608140E06B
:100F500006C0892F886081838370608141E00E9490
:100F60009B050895FC01918192FF07C0892F88603D
:100F700081838370608141E007C0892F877F8183EF
:100F8000892F8370608140E00E949B050895FC01D9
:100F900081818370608141E00E94170608950F935C
:100FA0001F938C01FC018181648141E00E949B05BB
:100FB00080EA9FE00197F1F7F8018181648140E0C8
:100FC0000E949B051F910F910895FF920F931F930D
:100FD0008C01F62EFC018181628141E00E949B051B
:100FE000F80180816F2D0E94CB06C8010E94CF07B7
:100FF0001F910F91FF900895CF92DF92EF92FF9291
:101000001F93DF93CF93CDB7DEB72A970FB6F8942F
:10101000DEBF0FBECDBF6C01262F6A3028F4205DE5
:10102000622F0E94E5072EC049E0DE011196FD0106
:10103000E40FF11D822F6AE00E949A0C9083342FF6
:101040003150822F0E949A0C282F823010F0432FAB
:10105000EECFFE01E30FF11D8281882309F4342FC6
:10106000132F1F5F7E010894E11CF11C09C0F701DA
:10107000E10FF11D6081605DC6010E94E5071F5F01
:101080001A30A8F32A960FB6F894DEBF0FBECDBF74
:10109000CF91DF911F91FF90EF90DF90CF90089557
:1010A000EF92FF921F93CF93DF937C01EB0110E04F
:1010B00004C0C7010E94E5071F5FFE01E10FF11D9B
:1010C00060816623B1F7DF91CF911F91FF90EF9080
:1010D0000895FB0160810E94E5070895FF920F9338
:1010E0001F938C01F62EFC018181628140E00E94F9
:1010F0009B05F80180816F2D0E94CB06C8010E94DC
:10110000CF071F910F91FF900895662319F061306A
:1011100051F405C04058642F0E946E080895405451
:10112000642F0E946E08089561E00E946E08089581
:10113000EF92FF920F931F938C01FC0181816481D8
:1011400041E00E941706F8018181628141E00E941E
:101150001706F8018181638141E00E941706F801BA
:101160008181638140E00E949B05F80180816FEFDF
:101170000E94B40680E69AEE0197F1F7C80168E391
:101180000E946E0880EDE82E87E0F82EC7010197D7
:10119000F1F7C8016CE00E946E08C7010197F1F7F2
:1011A000C80161E00E946E081F910F91FF90EF90BF
:1011B0000895BF92CF92DF92EF92FF920F931F9309
:1011C000DF93CF930F92CDB7DEB78C0181E0898397
:1011D000FF246E010894C11CD11CF80180816F2D81
:1011E00040E00E949B05EE2494E0B92EBE0CF8016D
:1011F00080816B2DA6010E9493068981882309F5C1
:1012000007C0F80180816B2DA6010E94930604C0DF
:101210006E010894C11CD11C8981882391F3F801C7
:1012200080816F2D41E00E949B05EF2DF0E0EE0FD5
:10123000FF1FEE0FFF1FEE0DF11DE659FF4F8081DE
:1012400010C0E394F4E0EF1679F6F80180816F2D79
:1012500041E00E949B05F394F4E0FF1609F0BDCF36
:101260008FEF0F90CF91DF911F910F91FF90EF9033
:10127000DF90CF90BF9008950F931F938C01FC01D6
:1012800080816FE00E94B406F80180816FEF0E94B8
:10129000CB061F910F910895CF92DF92EF92FF92AC
:1012A0001F93DF93CF930F92CDB7DEB77C0110E091
:1012B0006E010894C11CD11CF7018181837060818B
:1012C000A6010E9493068981813009F410E01F5F16
:1012D000173990F30F90CF91DF911F91FF90EF900E
:1012E000DF90CF9008950F931F938C01FC018181B3
:1012F0008370608140E00E941706F801818183704D
:10130000608141E00E949B051F910F9108951F92FB
:101310000F920FB60F9211248F93809122018F5F4D
:1013200080932201809122018C3339F410922201A2
:10133000809124018F5F80932401809124018C335C
:1013400039F410922401809123018F5F809323014F
:1013500080912301883121F41092220110922301FF
:101360008F910F900FBE0F901F9018950F931F93A2
:101370008C01DA01F9012181205180813AE0839FBB
:10138000C0011124280F2C93238120518281839F37
:10139000C0011124280FDB012C9325812051848169
:1013A000839FC0011124280FF80120831F910F9102
:1013B00008959F92AF92BF92CF92DF92EF92FF92E9
:1013C0000F931F93DF93CF930F92CDB7DEB76C01CE
:1013D000962E8BE790E00E9494088BE790E06DE9F1
:1013E00070E00E94500888EE93E028EC30E0F901AC
:1013F0003197F1F70197D9F710E088ECE82EF12C3E
:101400005E010894A11CB11C80E890E00E94D908FC
:10141000082F8F3FC9F3833689F0F601E10FF11DE4
:10142000808389838BE790E0B5010E94690888EE8C
:1014300093E0F7013197F1F70197D9F7113091F463
:101440008BE790E00E9494088BE790E06BEA70E0F5
:101450000E94500888EE93E0F7013197F1F7019769
:10146000D9F72BC0133091F48BE790E00E949408D9
:101470008BE790E068EB70E00E94500888EE93E004
:10148000F7013197F1F70197D9F717C01530A9F493
:101490008BE790E00E9494088BE790E06EED70E09F
:1014A0000E94500888EE93E028EC30E0F901319773
:1014B000F1F70197D9F780E026C0033601F58BE7F5
:1014C00090E00E9494088BE790E061E870E00E9451
:1014D00050088BE790E061E040E00E9485088BE7D0
:1014E00090E06FE870E00E94500888EE93E028ECEE
:1014F00030E0F9013197F1F70197D9F704C01F5F88
:10150000911608F081CF0F90CF91DF911F910F912D
:10151000FF90EF90DF90CF90BF90AF909F90089595
:101520000F931F93CF93DF93C0E0D0E008EE13E05A
:10153000C230D10509F441C0C330D1053CF4209735
:1015400091F0C130D10509F08EC022C0C430D10560
:1015500009F45DC0C430D1050CF444C0C530D105D8
:1015600009F081C069C082E060E040E00E949B0514
:10157000809122016AE00E949A0C692F8AE790E02C
:101580000E940507C8010197F1F782E060E068C09A
:1015900082E061E040E00E949B05809122016AE0C8
:1015A0000E949A0C682F8AE790E00E940507C80104
:1015B0000197F1F782E061E053C082E062E040E031
:1015C0000E949B05809124016AE00E949A0C692F79
:1015D0008AE790E00E940507C8010197F1F782E0D1
:1015E00062E03EC082E063E040E00E949B058091A3
:1015F00024016AE00E949A0C682F8AE790E00E941A
:101600000507C8010197F1F782E063E029C082E095
:1016100064E040E00E949B05809123016AE00E9403
:101620009A0C692F8AE790E00E940507C80101978C
:10163000F1F782E064E014C082E065E040E00E94DF
:101640009B05809123016AE00E949A0C682F8AE72B
:1016500090E00E940507C8010197F1F782E065E07C
:1016600041E00E949B052196C630D10509F060CF6C
:10167000DF91CF911F910F9108951F920F920FB696
:101680000F9211242F933F934F935F936F937F9308
:101690008F939F93AF93BF93EF93FF938091250117
:1016A000863039F41092250182E065E041E00E9425
:1016B0009B0560912501615082E041E00E949B05FD
:1016C0006091250182E040E00E949B058091250108
:1016D0008230A1F0833028F4882351F0813029F53D
:1016E0000AC0843089F0843060F08530F1F413C092
:1016F000809122010BC0809122010FC080912401B2
:1017000005C08091240109C0809123016AE00E94F4
:101710009A0C692F06C0809123016AE00E949A0CFE
:10172000682F8AE790E00E940507809125018F5F6E
:1017300080932501FF91EF91BF91AF919F918F9180
:101740007F916F915F914F913F912F910F900FBEBD
:101750000F901F901895CF92DF92EF92FF920F9308
:101760001F93DF93CF93CDB7DEB765970FB6F8948D
:10177000DEBF0FBECDBFDE011196EFE0F1E086E0E7
:1017800001900D928150E1F70E94D70481EC82BF55
:101790008E01095F1F4F8FE0F80111928A95E9F7DA
:1017A0008F818C7F81608F8388E090E09B878A8720
:1017B00085E090E09D878C8781E090E09B8B8A8B11
:1017C000C8016BEB73E00E94AE03C8010E940901DF
:1017D00082E06FE30E94B40682E06FE30E94CB06D2
:1017E0008AE790E00E941A078BE790E00E94980831
:1017F00080E890E00E943C098BE790E061E870E0AF
:101800000E9450088BE790E061E040E00E9485086C
:101810008BE790E06FE870E00E94500801E098ECE0
:10182000C92ED12C7E010894E11CF11C01C001E0FD
:1018300080E890E00E94D9088F3F09F474C081339A
:1018400031F58BE790E00E949408C70166E00E94A2
:10185000D90982E291E064E271E043E251E097014C
:101860000E94B6098BE790E00E9494088BE790E015
:1018700065EC70E00E9450088BE790E061E040E08A
:101880000E9485088BE790E060ED70E01CC0823319
:10189000E9F41092220110922401109223018BE7A7
:1018A00090E00E9494088BE790E065EE70E00E9463
:1018B00050088BE790E061E040E00E9485088BE7EC
:1018C00090E060EF70E00E94500830C08BE790E03D
:1018D0000E9494088BE790E060E040E00E94850859
:1018E0008BE790E060E071E00E94500888EE93E0A2
:1018F000F6013197F1F70197D9F78BE790E00E9455
:1019000094088BE790E061E870E00E9450088BE754
:1019100090E061E040E00E9485088BE790E06FE88E
:1019200070E00E945008002309F081CF0E94900AC5
:1019300000E07ECF991B79E004C0991F961708F04C
:10194000961B881F7A95C9F780950895F894FFCF64
:101950003F065B4F666D7D077F6F3738392F343513
:1019600036783132332D63303D2B050002060807EF
:1019700003312920436C6F636B204D6F6465003227
:10198000292054696D6572204D6F646500456E7441
:10199000657220486F7572733D2000456E746572E4
:1019A000204D696E203D2000456E746572205365A0
:1019B00063203D2000436C6F636B204D6F646500B6
:1019C000312953657420322954696D657200446F62
:1019D0006E6520210054696D6572204D6F6465004D
:1019E0003129436C6F636B20322952657365740033
:1019F0002057726F6E672043686F6963652000230C
:061A000023232323230031
:00000001FF
