:100000000C942A000C9447000C9447000C94470071
:100010000C9447000C9447000C9447000C94AB1BC5
:100020000C9447000C9447000C9447000C94470034
:100030000C9447000C9447000C9447000C94470024
:100040000C9447000C9447000C9447000C94470014
:100050000C94470011241FBECFE5D8E0DEBFCDBF12
:1000600010E0A0E6B0E0EEEEFCE402C005900D92D8
:10007000AA3FB107D9F711E0AAEFB0E001C01D9285
:10008000AC30B107E1F70E94E01B0C9475260C948C
:100090000000EF92FF920F931F937B018C0120E0F1
:1000A00030E040E05FE40E94490388238CF0C801FF
:1000B000B70120E030E040E05FE40E94C1010E940F
:1000C000A9039B01AC01205030404040504806C07D
:1000D000C801B7010E94A9039B01AC01B901CA0183
:1000E0001F910F91FF90EF900895A0E0B0E0EBE733
:1000F000F0E00C943E26DC012B01FA019C91923039
:1001000008F439C1EB018881823008F433C194309E
:1001100069F4843009F02FC111969C91119789815F
:10012000981709F428C1A0E6B0E025C1843009F48D
:1001300021C18230A9F4923009F01DC19A01AD01AC
:1001400088E0EA010990AE01E90109929E0181501F
:10015000C1F7E201898111969C918923818308C1AD
:10016000923009F407C112962D903C901397EB0141
:100170008A819B811496AD90BD90CD90DC901797AD
:10018000EC80FD800E811F819101281B390BB90184
:1001900037FF04C066277727621B730B6032710537
:1001A0000CF061C0121613066CF537014801062EDB
:1001B00004C096948794779467940A94D2F721E0C8
:1001C00030E040E050E004C0220F331F441F551FB1
:1001D0006A95D2F721503040404050402E213F21B7
:1001E00040235123211531054105510521F021E01E
:1001F00030E040E050E079018A01E628F72808293C
:1002000019293CC0232BD1F1260E371E350146019A
:10021000062E04C096948794779467940A94D2F734
:1002200021E030E040E050E004C0220F331F441FC3
:10023000551F6A95D2F721503040404050402A2146
:100240003B214C215D21211531054105510521F04E
:1002500021E030E040E050E059016A01A628B728CB
:10026000C828D9280BC0821593052CF01C01AA249C
:10027000BB24650103C0EE24FF24870111969C91E5
:10028000D20111968C91981709F445C0992339F041
:10029000A80197012A193B094C095D0906C0A6016E
:1002A00095012E193F09400B510B57FD08C01182D3
:1002B0003382228224833583468357831DC081E0A5
:1002C00081833382228288279927DC01821B930B4A
:1002D000A40BB50B84839583A683B7830DC0220F2F
:1002E000331F441F551F24833583468357838281E0
:1002F000938101979383828324813581468157813D
:10030000DA01C9010197A109B1098F5F9F4FAF4F72
:10031000BF4328F30BC0918333822282EA0CFB1C7B
:100320000C1D1D1DE482F5820683178383E0808304
:10033000248135814681578157FF1AC0C901AA27F8
:1003400097FDA095BA2F81709070A070B0705695EF
:10035000479537952795822B932BA42BB52B848318
:100360009583A683B7838281938101969383828349
:10037000DF0101C0D201CD01CDB7DEB7E2E10C94BF
:100380005A26A0E2B0E0E7ECF1E00C944A2669833B
:100390007A838B839C832D833E834F835887E9E048
:1003A000EE2EF12CEC0EFD1ECE010196B7010E943F
:1003B000D2048E010F5E1F4FCE010596B8010E9438
:1003C000D2048A8991E089278A8BC701B801AE01DE
:1003D000475E5F4F0E9475000E94FD03A096E6E015
:1003E0000C946626A0E2B0E0E8EFF1E00C944A2617
:1003F00069837A838B839C832D833E834F835887C5
:10040000F9E0EF2EF12CEC0EFD1ECE010196B701A6
:100410000E94D2048E010F5E1F4FCE010596B801D7
:100420000E94D204C701B801AE01475E5F4F0E942F
:1004300075000E94FD03A096E6E00C946626A0E2FB
:10044000B0E0E5E2F2E00C943E2669837A838B8388
:100450009C832D833E834F835887CE010196BE0136
:10046000675F7F4F0E94D204CE010596BE016F5E8A
:100470007F4F0E94D2049985923088F0898982301A
:10048000C8F0943019F4823051F404C0843029F457
:10049000923081F480E690E0C6C0923049F420E0CA
:1004A0009A858A89981321E02A87CE010996BBC0D4
:1004B000823049F420E09A858A89981321E02A8BBA
:1004C000CE014196B0C02D843E844F8458886D88FB
:1004D0007E888F88988CEE24FF248701AA24BB2471
:1004E000650140E050E060E070E0E0E0F0E0C10174
:1004F00081709070892BE9F0E60CF71C081D191D1E
:100500009A01AB012A0D3B1D4C1D5D1D80E090E062
:10051000A0E0B0E0E614F7040805190520F481E036
:1005200090E0A0E0B0E0BA01A901480F591F6A1F8E
:100530007B1FAA0CBB1CCC1CDD1C97FE08C081E0F5
:1005400090E0A0E0B0E0A82AB92ACA2ADB2A3196B6
:10055000E032F10549F0660C771C881C991C569412
:10056000479437942794C3CFFA85EA892B893C892D
:100570008B859C85280F391F2E5F3F4F17C0CA01FE
:1005800081709070892B61F016950795F794E79428
:1005900080E090E0A0E0B0E8E82AF92A0A2B1B2BC3
:1005A00076956795579547952F5F3F4F77FDE7CF36
:1005B0000CC0440F551F661F771F17FD4160EE0CDE
:1005C000FF1C001F111F21503040403090E05907A0
:1005D00090E0690790E4790760F32B8F3C8FDB0193
:1005E000CA018F779070A070B07080349105A1051A
:1005F000B10561F447FD0AC0E114F10401051105DC
:1006000029F0405C5F4F6F4F7F4F40781A8EFE1786
:1006100011F081E08A8F4D8F5E8F6F8F78A383E01A
:10062000898FCE0149960E94FD03A096E2E10C94C9
:100630005A26A8E1B0E0EFE1F3E00C944A26698382
:100640007A838B839C832D833E834F83588789E0F5
:10065000E82EF12CEC0EFD1ECE010196B7010E9492
:10066000D2048E010F5E1F4FCE010596B8010E9485
:10067000D2048985823040F08989823028F0C70110
:10068000B8010E944A0501C08FEF6896E6E00C941D
:100690006626A8E1B0E0EFE4F3E00C944A26698313
:1006A0007A838B839C832D833E834F83588789E095
:1006B000E82EF12CEC0EFD1ECE010196B7010E9432
:1006C000D2048E010F5E1F4FCE010596B8010E9425
:1006D000D2048985823040F08989823028F0C701B0
:1006E000B8010E944A0501C08FEF6896E6E00C94BD
:1006F0006626A8E1B0E0EFE7F3E00C944A266983B0
:100700007A838B839C832D833E834F83588789E034
:10071000E82EF12CEC0EFD1ECE010196B7010E94D1
:10072000D2048E010F5E1F4FCE010596B8010E94C4
:10073000D2048985823040F08989823028F0C7014F
:10074000B8010E944A0501C081E06896E6E00C9479
:100750006626ACE0B0E0EFEAF3E00C944E26698345
:100760007A838B839C83CE010196BE016B5F7F4FA2
:100770000E94D2048D81823061F1823050F1843048
:1007800021F48E81882351F12EC02F81388537FDC9
:1007900020C06E812F3131051CF06623F9F023C093
:1007A0008EE190E0821B930B29853A854B855C8511
:1007B00004C056954795379527958A95D2F76623B5
:1007C000B1F050954095309521953F4F4F4F5F4F79
:1007D0000EC020E030E040E050E009C02FEF3FEFD6
:1007E0004FEF5FE704C020E030E040E050E8B9019F
:1007F000CA012C96E2E00C946A26DF92EF92FF92F7
:100800000F931F93FC01E480F58006811781D1804E
:100810008081823048F480E090E0A0E1B0E0E82AF6
:10082000F92A0A2B1B2BA5C0843009F49FC0823003
:1008300021F4EE24FF24870105C0E114F104010531
:10084000110519F4E0E0F0E096C0628173819FEF3A
:10085000623879070CF05BC022E83FEF261B370BAC
:100860002A3131052CF020E030E040E050E02AC091
:10087000B801A701022E04C0769567955795479554
:100880000A94D2F781E090E0A0E0B0E004C0880FC5
:10089000991FAA1FBB1F2A95D2F70197A109B10979
:1008A0008E219F21A023B1230097A105B10521F03E
:1008B00081E090E0A0E0B0E09A01AB01282B392B59
:1008C0004A2B5B2BDA01C9018F779070A070B07052
:1008D00080349105A105B10539F427FF09C0205CDA
:1008E0003F4F4F4F5F4F04C0215C3F4F4F4F5F4F13
:1008F000E0E0F0E02030A0E03A07A0E04A07A0E402
:100900005A0710F0E1E0F0E079018A0127C0603871
:10091000710564F5FB01E158FF4FD801C7018F77DE
:100920009070A070B07080349105A105B10539F4C4
:10093000E7FE0DC080E490E0A0E0B0E004C08FE3EB
:1009400090E0A0E0B0E0E80EF91E0A1F1B1F17FFA1
:1009500005C016950795F794E794319687E01695AC
:100960000795F794E7948A95D1F705C0EE24FF2404
:100970008701EFEFF0E06E2F679566276795902F60
:100980009F77D794DD24D7948E2F8695492F462BB9
:10099000582F5D29B701CA011F910F91FF90EF9069
:1009A000DF900895FC01DB01408151812281622F9B
:1009B0006F7770E0221F2227221F9381892F880FD3
:1009C000822B282F30E0991F9927991F11969C930D
:1009D000119721153105A9F54115510561057105DD
:1009E00011F482E037C082E89FEF13969C938E93B8
:1009F00012979A01AB0167E0220F331F441F551F66
:100A00006A95D1F783E08C930DC0220F331F441FEA
:100A1000551F12968D919C911397019713969C9355
:100A20008E931297203080E0380780E0480780E4FA
:100A3000580758F314962D933D934D935C93179755
:100A400008952F3F310579F4411551056105710570
:100A500019F484E08C93089564FF03C081E08C93C3
:100A600012C01C9210C02F57304013963C932E9307
:100A7000129783E08C9387E0440F551F661F771F02
:100A80008A95D1F7706414964D935D936D937C9322
:100A9000179708951F93DC01FB019C91923008F495
:100AA00047C08081823008F443C0943051F41196DD
:100AB0001C91843099F58181682F70E0611B710968
:100AC0003FC0843021F0923031F48230B9F181811D
:100AD000882389F12DC011961C9111978230F1F075
:100AE00081811817D9F412962D913C911397828128
:100AF00093818217930794F028173907BCF0149656
:100B00008D919D910D90BC91A02D248135814681C0
:100B10005781281739074A075B0718F4112341F05A
:100B20000AC082179307A407B50740F4112319F0F0
:100B300061E070E005C06FEF7FEF02C060E070E041
:100B4000CB011F910895DF93CF93CDB7DEB76097A8
:100B50000FB6F894DEBF0FBECDBF9A838983E981BB
:100B6000FA818581282F30E0388B2F878F859889EF
:100B70008C30910509F47FC02F8538892D303105DF
:100B800024F58F8598898330910509F48CC02F85D1
:100B900038892430310564F48F859889009709F4E9
:100BA00092C02F8538892130310509F484C091C065
:100BB0008F8598898630910509F46DC02F85388915
:100BC0002830310509F45FC084C08F85988982324E
:100BD0009105C9F12F8538892332310564F48F8559
:100BE00098898031910509F43EC02F8538892931D3
:100BF000310589F16EC08F8598898736910599F006
:100C00002F8538892F3C310531F08F8598898333C2
:100C1000910589F05EC0A9E2B0E0E9E2F0E08081F0
:100C20008F6C8C9356C0A9E2B0E0E9E2F0E08081DD
:100C300087668C934EC0A9E2B0E0E9E2F0E08081E3
:100C400083638C9346C0A9E2B0E0E9E2F0E08081E2
:100C500082628C933EC0A9E2B0E0E9E2F0E08081DC
:100C600089618C9336C0A9E2B0E0E9E2F0E08081CE
:100C700080618C932EC0A9E2B0E0E9E2F0E08081CF
:100C80008C608C9326C0A9E2B0E0E9E2F0E08081BC
:100C900088608C931EC0A9E2B0E0E9E2F0E08081B8
:100CA00086608C9316C0A9E2B0E0E9E2F0E08081B2
:100CB00083608C930EC0A9E2B0E0E9E2F0E08081AD
:100CC00081608C9306C0E9E2F0E0A9E2B0E08C918B
:100CD0008083E981FA818081282F30E03E872D874B
:100CE0008D859E858038910541F12D853E85203C7E
:100CF000310541F58091FB00806C8093FB00E98118
:100D0000FA818481282F30E03C872B878B859C8556
:100D10008038910531F02B853C852138310539F03B
:100D200011C08091FB0080688093FB000BC0809114
:100D3000FB0081688093FB0005C08091FB00806808
:100D40008093FB00E981FA818181282F30E03A8786
:100D5000298789859A85803A910581F029853A8588
:100D6000203B310589F089859A858038910589F481
:100D70008091FB0080688093FB000BC08091FB009A
:100D8000806A8093FB0005C08091FB00806B80939C
:100D9000FB00E981FA818381282F30E038872F8397
:100DA0008F81988582389105E1F02F81388523382D
:100DB000310534F48F8198858038910561F022C027
:100DC0002F8138852438310591F08F8198858638B8
:100DD000910599F017C08091FB0080688093FB001B
:100DE00011C08091FB0082688093FB000BC0809152
:100DF000FB0084688093FB0005C08091FB0086683F
:100E00008093FB00E981FA818281282F30E03E83C4
:100E10002D838D819E818038910531F02D813E8119
:100E20002838310539F00BC08091FB008068809331
:100E3000FB0005C08091FB0088688093FB00E0E424
:100E4000F0E08091FB008083E981FA818681282F80
:100E500030E03C832B838B819C818031910591F024
:100E60002B813C8128313105A9F08B819C81883010
:100E70009105B9F4AAE2B0E0EAE2F0E0808188608E
:100E80008C930FC0AAE2B0E0EAE2F0E080818061DA
:100E90008C9307C0AAE2B0E0EAE2F0E080818861CA
:100EA0008C9360960FB6F894DEBF0FBECDBFCF9186
:100EB000DF910895DF93CF9300D0CDB7DEB78A835B
:100EC00088EC89830FC0EBE2F0E080818295869503
:100ED0008770882F90E081709070882331F4898129
:100EE000815089838981882371F7ECE2F0E08A815F
:100EF00080830F900F90CF91DF910895DF93CF9370
:100F000000D0CDB7DEB788EC89830BC0EBE2F0E010
:100F10008081881F8827881F813031F08981815026
:100F200089838981882391F7ECE2F0E080818A83CC
:100F30008A810F900F90CF91DF910895DF93CF9327
:100F4000CDB7DEB7A6970FB6F894DEBF0FBECDBF04
:100F50009A838983E981FA8180818370282F30E028
:100F60003EA32DA38DA19EA18130910509F432C12C
:100F70002DA13EA12230310509F4C8C38DA19EA147
:100F8000009709F0F7C4E981FA81218132813CA3FD
:100F90002BA38BA19CA1009769F02BA13CA1203829
:100FA000310571F4A3E5B0E0E3E5F0E0808180680D
:100FB0008C9306C0E3E5F0E0A3E5B0E08C9180837C
:100FC000E981FA81838194819AA389A329A13AA115
:100FD00028343105A9F189A19AA18934910508F035
:100FE0004AC029A13AA120343105E1F089A19AA192
:100FF0008134910508F03FC029A13AA1211531059E
:1010000031F089A19AA18830910541F134C0E3E51E
:10101000F0E0A3E5B0E08C91808310920A01109279
:10102000090129C0A3E5B0E0E3E5F0E08081806438
:101030008C9380E490E090930A01809309011BC097
:10104000A3E5B0E0E3E5F0E0808188648C9388E478
:1010500090E090930A01809309010DC0A3E5B0E0F0
:10106000E3E5F0E0808188608C9388E090E09093E5
:101070000A0180930901E981FA812781308538A32B
:101080002F8F8F8D98A180319105E1F02F8D38A1A0
:101090002131310528F48F8D98A1009761F029C086
:1010A0002F8D38A120323105A9F08F8D98A1803382
:1010B0009105C1F01EC0E3E5F0E0A3E5B0E08C913E
:1010C000808317C0A3E5B0E0E3E5F0E080818061B4
:1010D0008C930FC0A3E5B0E0E3E5F0E0808180628F
:1010E0008C9307C0A3E5B0E0E3E5F0E08081806386
:1010F0008C93E981FA81258136813E8F2D8F8D8DEC
:101100009E8D8230910571F12D8D3E8D23303105FC
:1011100050F48D8D9E8D0097B1F02D8D3E8D213038
:101120003105C1F027C48D8D9E8D84309105B1F1BC
:101130002D8D3E8D2430310518F18D8D9E8D85309D
:101140009105D1F117C4E3E5F0E0A3E5B0E08C919F
:10115000808310C4A3E5B0E0E3E5F0E08081816026
:101160008C9308C4A3E5B0E0E3E5F0E08081826001
:101170008C9388E090E09093FD008093FC00FAC38C
:10118000A3E5B0E0E3E5F0E0808183608C9380E448
:1011900090E09093FD008093FC00ECC3A3E5B0E0E9
:1011A000E3E5F0E0808184608C9380E890E09093A8
:1011B000FD008093FC00DEC3A3E5B0E0E3E5F0E0D2
:1011C000808185608C9380E094E09093FD00809313
:1011D000FC00D0C3E981FA81218132813C8F2B8FC1
:1011E0008B8D9C8D009769F12B8D3C8D21303105C5
:1011F00009F04AC0E981FA81818592859A8F898FA9
:10120000298D3A8D2115310531F0898D9A8D8130E6
:10121000910561F039C0AEE4B0E0EEE4F0E0808129
:101220009181946011969C938E932EC0AEE4B0E0B1
:10123000EEE4F0E080819181986011969C938E930A
:1012400023C0E981FA8121853285388F2F8B8F89E0
:10125000988D009731F02F89388D2130310559F064
:1012600013C0EEE4F0E0AEE4B0E08D919C911197F4
:101270009183808309C0EEE4F0E0AEE4B0E08D91AC
:101280009C91119791838083E981FA818381948174
:101290009E8B8D8B2D893E8982E02030380709F4A2
:1012A00085C02D893E8982E02130380770F52D896F
:1012B0003E892831310509F406C18D899E8989311D
:1012C000910568F42D893E892115310509F44FC037
:1012D0008D899E898830910509F48AC028C12D899D
:1012E0003E8981E02830380709F493C02D893E8972
:1012F00081E02831380709F4F7C02D893E8981E063
:101300002030380709F441C012C12D893E8983E09D
:101310002030380709F45BC02D893E8983E02130F5
:10132000380778F42D893E8982E02830380709F49F
:1013300082C02D893E8982E02031380709F49FC0A0
:10134000F6C02D893E8983E02031380709F4A9C011
:101350002D893E8983E02831380709F4D7C02D89CB
:101360003E8983E02830380709F477C0E0C0EEE416
:10137000F0E0AEE4B0E08D919C9111979183808371
:1013800010920A0110920901D2C0AEE4B0E0EEE47E
:10139000F0E080819181916011969C938E9380E022
:1013A00091E090930A0180930901C1C0AEE4B0E0DE
:1013B000EEE4F0E080819181926011969C938E938F
:1013C00080E092E090930A0180930901B0C0AEE4FE
:1013D000B0E0EEE4F0E080819181936011969C93FF
:1013E0008E9380E093E090930A01809309019FC05F
:1013F000AEE4B0E0EEE4F0E0808191818860119687
:101400009C938E9388E090E090930A018093090169
:101410008EC0AEE4B0E0EEE4F0E0808191818860BF
:10142000916011969C938E9388E091E090930A01CD
:10143000809309017CC0AEE4B0E0EEE4F0E080818E
:1014400091818860926011969C938E9388E092E0DF
:1014500090930A01809309016AC0AEE4B0E0EEE423
:10146000F0E0808191818860936011969C938E93C7
:1014700088E093E090930A018093090158C0AEE49C
:10148000B0E0EEE4F0E0808191818061926011969D
:101490009C938E9380E192E090930A0180930901DE
:1014A00046C0AEE4B0E0EEE4F0E08081918180617E
:1014B000936011969C938E9380E193E090930A0140
:1014C0008093090134C0AEE4B0E0EEE4F0E0808146
:1014D0009181886111969C938E9388E190E090931E
:1014E0000A018093090123C0AEE4B0E0EEE4F0E02D
:1014F000808191818861916011969C938E9388E19F
:1015000091E090930A018093090111C0AEE4B0E02C
:10151000EEE4F0E0808191818861936011969C9364
:101520008E9388E193E090930A0180930901E98109
:10153000FA81278130853C8B2B8B8B899C8920E31A
:101540008030920709F44CC08B899C8920E381305C
:10155000920788F48B899C8920E18030920751F1B1
:101560008B899C8920E28030920779F18B899C8954
:101570000097B1F060C02B893C8980E820303807A3
:1015800009F444C02B893C8980EC2030380709F4E9
:1015900048C02B893C8980E42030380761F14BC07A
:1015A000EEE4F0E0AEE4B0E08D919C911197918370
:1015B000808341C0AEE4B0E0EEE4F0E08081918150
:1015C000906111969C938E9336C0AEE4B0E0EEE449
:1015D000F0E080819181906211969C938E932BC054
:1015E000AEE4B0E0EEE4F0E080819181906311968A
:1015F0009C938E9320C0AEE4B0E0EEE4F0E08081F6
:101600009181906411969C938E9315C0AEE4B0E0E6
:10161000EEE4F0E080819181906811969C938E9326
:101620000AC0AEE4B0E0EEE4F0E080819181906C1D
:1016300011969C938E93E981FA81258136813A8BAC
:10164000298B89899A8982309105A1F129893A8962
:101650002330310550F489899A890097B1F029899E
:101660003A8921303105D9F085C189899A89843038
:101670009105B1F129893A892430310530F1898900
:101680009A8985309105B9F175C1EEE4F0E0AEE4D8
:10169000B0E08D919C911197918380836BC1AEE4F2
:1016A000B0E0EEE4F0E080819181816011969C933E
:1016B0008E9360C1AEE4B0E0EEE4F0E08081918111
:1016C000826011969C938E9355C1AEE4B0E0EEE437
:1016D000F0E080819181836011969C938E934AC142
:1016E000AEE4B0E0EEE4F0E0808191818460119698
:1016F0009C938E933FC1AEE4B0E0EEE4F0E08081D5
:101700009181856011969C938E9334C1E981FA8111
:1017100021813281388B2F878F859889009769F0D6
:101720002F8538892038310571F4A5E4B0E0E5E46F
:10173000F0E0808180688C9306C0E5E4F0E0A5E4E9
:10174000B0E08C918083E981FA81838194819E87C6
:101750008D872D853E8528343105A9F18D859E859F
:101760008934910508F04AC02D853E852034310525
:10177000E1F08D859E858134910508F03FC02D856F
:101780003E852115310531F08D859E858830910586
:1017900041F134C0E5E4F0E0A5E4B0E08C91808351
:1017A00010920A011092090129C0A5E4B0E0E5E415
:1017B000F0E0808180648C9380E490E090930A0153
:1017C000809309011BC0A5E4B0E0E5E4F0E080816E
:1017D00088648C9388E490E090930A0180930901D7
:1017E0000DC0A5E4B0E0E5E4F0E0808188608C9372
:1017F00088E090E090930A0180930901E981FA81E1
:10180000278130853C872B878B859C85803191058E
:10181000E1F02B853C852131310528F48B859C85B1
:10182000009761F029C02B853C8520323105A9F055
:101830008B859C8580339105C1F01EC0E5E4F0E006
:10184000A5E4B0E08C91808317C0A5E4B0E0E5E4A6
:10185000F0E0808180618C930FC0A5E4B0E0E5E406
:10186000F0E0808180628C9307C0A5E4B0E0E5E4FD
:10187000F0E0808180638C93E981FA81858596858B
:101880008830910539F4A2E4B0E0E2E4F0E0808130
:1018900088608C93E981FA81258136813A8729878E
:1018A00089859A858230910571F129853A852330A1
:1018B000310550F489859A850097B1F029853A85DC
:1018C00021303105C1F056C089859A858430910553
:1018D000B1F129853A852430310518F189859A8539
:1018E00085309105D1F146C0E5E4F0E0A5E4B0E033
:1018F0008C9180833FC0A5E4B0E0E5E4F0E0808116
:1019000081608C9337C0A5E4B0E0E5E4F0E080812D
:1019100082608C9388E090E09093FD008093FC00BF
:1019200029C0A5E4B0E0E5E4F0E0808183608C9319
:1019300080E490E09093FD008093FC001BC0A5E440
:10194000B0E0E5E4F0E0808184608C9380E890E092
:101950009093FD008093FC000DC0A5E4B0E0E5E4A9
:10196000F0E0808185608C9380E094E09093FD00AE
:101970008093FC00E981FA8183859485813091050B
:1019800009F052C0E981FA8180818370282F30E00C
:1019900038872F838F819885009731F02F81388584
:1019A0002230310511F140C0E981FA8183819481AF
:1019B0009E838D832D813E812115310531F08D81EE
:1019C0009E818034910549F02FC0A9E5B0E0E9E59A
:1019D000F0E0808181608C9327C0A9E5B0E0E9E563
:1019E000F0E0808182608C931FC0E981FA812381BD
:1019F00034813C832B838B819C81009731F02B8138
:101A00003C812034310549F00FC0A9E5B0E0E9E59B
:101A1000F0E0808181608C9307C0A9E5B0E0E9E542
:101A2000F0E0808182608C93A6960FB6F894DEBFBA
:101A30000FBECDBFCF91DF910895DF93CF93CDB788
:101A4000DEB728970FB6F894DEBF0FBECDBF9A83DE
:101A500089837C836B83E981FA8180818370282F5D
:101A600030E038872F838F819885009731F02F8160
:101A700038852130310531F046C0ECE5F0E08B814E
:101A8000808341C0E981FA81878190859E838D831F
:101A90002D813E8180E320303807D1F02D813E81B9
:101AA00080E32130380738F42D813E8180E22030F8
:101AB0003807A9F028C02D813E8180E82030380702
:101AC000E1F02D813E8180EC2030380779F01BC099
:101AD000E8E4F0E08B819C819183808314C0E8E48A
:101AE000F0E08B819C81918380830DC0EAE4F0E07B
:101AF0008B819C819183808306C0EAE4F0E08B8136
:101B00009C819183808328960FB6F894DEBF0FBE28
:101B1000CDBFCF91DF910895DF93CF9300D000D058
:101B2000CDB7DEB79A8389837C836B83E981FA81A1
:101B300080818370813031F4E6E4F0E08B819C8118
:101B4000918380830F900F900F900F90CF91DF9132
:101B50000895DF93CF93CDB7DEB728970FB6F894EB
:101B6000DEBF0FBECDBF9A8389837C836B83E981FF
:101B7000FA8180818370282F30E038872F838F810E
:101B800098858130910571F02F813885223031059B
:101B900039F18F819885009739F5ECE5F0E08B817C
:101BA000808322C0E981FA81218532853E832D839D
:101BB0008D819E81009731F02D813E81213031054C
:101BC00041F012C0EAE4F0E08B819C819183808334
:101BD0000BC0E8E4F0E08B819C819183808304C09A
:101BE000E3E4F0E08B81808328960FB6F894DEBFA3
:101BF0000FBECDBFCF91DF910895DF93CF93CDB7C7
:101C0000DEB72C970FB6F894DEBF0FBECDBF9A8318
:101C10008983E981FA818081282F30E03C872B87F6
:101C20008B859C85009709F44DC02B853C85203120
:101C3000310509F04DC0ADE2B0E0EDE2F0E08081A9
:101C400080618C93E981FA818381282F30E03A8783
:101C5000298789859A8581309105E1F029853A8522
:101C6000223031052CF489859A85009761F030C0C7
:101C700029853A8522303105A9F089859A858330F6
:101C80009105C1F025C0EDE2F0E0ADE2B0E08C914D
:101C900080831EC0ADE2B0E0EDE2F0E080818160C3
:101CA0008C9316C0ADE2B0E0EDE2F0E0808182609E
:101CB0008C930EC0ADE2B0E0EDE2F0E08081836095
:101CC0008C9306C0EDE2F0E0ADE2B0E08C91808351
:101CD000E981FA818281282F30E038872F838F8134
:101CE0009885009731F02F8138852430310541F0F7
:101CF0000EC0EDE2F0E0ADE2B0E08C91808307C071
:101D0000ADE2B0E0EDE2F0E0808184608C93E981A7
:101D1000FA818181282F30E03E832D838D819E8141
:101D2000009731F02D813E812830310541F00EC001
:101D3000EDE2F0E0ADE2B0E08C91808307C0ADE26F
:101D4000B0E0EDE2F0E0808188608C93E981FA8177
:101D50008581282F30E03C832B838B819C810097E9
:101D600069F02B813C812032310571F4ADE2B0E0A5
:101D7000EDE2F0E0808180628C9306C0EDE2F0E05D
:101D8000ADE2B0E08C918083ADE2B0E0EDE2F0E056
:101D9000808180648C932C960FB6F894DEBF0FBEC2
:101DA000CDBFCF91DF910895DF93CF9300D00F92F5
:101DB000CDB7DEB78A83EFE2F0E08A81808388ECDA
:101DC000898303C0898181508983EEE2F0E08081BC
:101DD00088231CF089818823A9F78981882331F021
:101DE000EFE2F0E080818B838B8100C00F900F9039
:101DF0000F90CF91DF910895DF93CF93CDB7DEB7EA
:101E0000AFE5B0E0EFE5F0E0808180688C93CF91A2
:101E1000DF910895DF93CF93CDB7DEB7AFE5B0E0A4
:101E2000EFE5F0E080818F778C93CF91DF9108957B
:101E3000DF93CF93CDB7DEB72E970FB6F894DEBF02
:101E40000FBECDBF9A8389830E94FC0EE981FA817F
:101E500080818370282F30E03E872D878D859E8579
:101E60008130910579F02D853E852230310581F054
:101E70008D859E85009789F483E062E040E00E94B2
:101E8000C8110BC083E063E040E00E94C81105C0A8
:101E900081E062E040E00E94C811E981FA8180811E
:101EA0008370282F30E03C872B878B859C85813081
:101EB000910509F46BC02B853C852230310509F46E
:101EC000C5C08B859C85009709F0E3C0E981FA8144
:101ED0008081869586958370282F30E03A87298700
:101EE00089859A858130910521F129853A852230AD
:101EF00031052CF489859A85009761F0CAC029853F
:101F00003A852230310521F189859A858330910502
:101F100071F1BFC0A5E5B0E0E5E5F0E08081826049
:101F20008C93A5E5B0E0E5E5F0E0808181608C93DD
:101F3000B0C0A5E5B0E0E5E5F0E0808182608C937B
:101F4000A5E5B0E0E5E5F0E080818E7F8C93A1C04F
:101F5000A5E5B0E0E5E5F0E080818D7F8C93A5E517
:101F6000B0E0E5E5F0E0808181608C9392C0A5E56A
:101F7000B0E0E5E5F0E0808182608C93A5E5B0E01B
:101F8000E5E5F0E0808181608C9383C0E981FA818E
:101F90008081869586958370282F30E038872F833F
:101FA0008F8198858130910521F12F8138852230EC
:101FB00031052CF48F819885009761F06AC02F81DC
:101FC00038852230310521F18F8198858330910544
:101FD00071F15FC0A5E5B0E0E5E5F0E080818860E3
:101FE0008C93A5E5B0E0E5E5F0E0808184608C931A
:101FF00050C0A5E5B0E0E5E5F0E0808188608C9315
:10200000A5E5B0E0E5E5F0E080818B7F8C9341C0F1
:10201000A5E5B0E0E5E5F0E08081877F8C93A5E55C
:10202000B0E0E5E5F0E0808184608C9332C0A5E506
:10203000B0E0E5E5F0E0808188608C93A5E5B0E054
:10204000E5E5F0E0808184608C9323C0E981FA812A
:102050008081869586958370282F30E03E832D837E
:102060008D819E81009731F02D813E812130310597
:1020700049F00FC0A4E5B0E0E4E5F0E080818064C1
:102080008C9307C0A4E5B0E0E4E5F0E080818F7BAD
:102090008C93E981FA8180818370282F30E03C8322
:1020A0002B838B819C818130910589F02B813C8130
:1020B00022303105A1F08B819C810097B9F4ABE50A
:1020C000B0E0EBE5F0E0808180648C930FC0ABE57D
:1020D000B0E0EBE5F0E0808180688C9307C0ABE571
:1020E000B0E0EBE5F0E0808180628C932E960FB635
:1020F000F894DEBF0FBECDBFCF91DF910895DF937F
:10210000CF9300D000D0CDB7DEB79A838983E98121
:10211000FA8180818370282F30E03C832B838B8170
:102120009C818130910589F02B813C8122303105E1
:10213000A1F08B819C810097B9F4ABE5B0E0EBE5B1
:10214000F0E080818F7B8C930FC0ABE5B0E0EBE5D6
:10215000F0E080818F778C9307C0ABE5B0E0EBE5D2
:10216000F0E080818F7D8C930F900F900F900F90F7
:10217000CF91DF910895DF93CF93CDB7DEB7289746
:102180000FB6F894DEBF0FBECDBF8A836B834C833E
:1021900019828A81843008F0EFC08B81883008F082
:1021A000EBC08C81813009F06FC08A81282F30E02C
:1021B00038872F838F8198858130910549F12F8150
:1021C0003885223031052CF48F819885009761F095
:1021D000D5C02F8138852230310571F18F819885E6
:1021E00083309105E9F1CAC0ABE3B0E0EBE3F0E086
:1021F0008081482F8B81282F30E081E090E0022EF3
:1022000002C0880F991F0A94E2F7842B8C93B6C002
:10221000A8E3B0E0E8E3F0E08081482F8B81282F2D
:1022200030E081E090E0022E02C0880F991F0A94EE
:10223000E2F7842B8C93A2C0A5E3B0E0E5E3F0E0E5
:102240008081482F8B81282F30E081E090E0022EA2
:1022500002C0880F991F0A94E2F7842B8C938EC0DA
:10226000A2E3B0E0E2E3F0E08081482F8B81282FE9
:1022700030E081E090E0022E02C0880F991F0A949E
:10228000E2F7842B8C937AC08C81882309F076C086
:102290008A81282F30E03E832D838D819E8181307D
:1022A000910559F12D813E81223031052CF48D812B
:1022B0009E81009769F062C02D813E8122303105F8
:1022C00089F18D819E818330910509F440C056C00B
:1022D000ABE3B0E0EBE3F0E08081482F8B81282F67
:1022E00030E081E090E0022E02C0880F991F0A942E
:1022F000E2F7809584238C9341C0A8E3B0E0E8E343
:10230000F0E08081482F8B81282F30E081E090E041
:10231000022E02C0880F991F0A94E2F78095842349
:102320008C932CC0A5E3B0E0E5E3F0E08081482F7A
:102330008B81282F30E081E090E0022E02C0880FD0
:10234000991F0A94E2F7809584238C9317C0A2E327
:10235000B0E0E2E3F0E08081482F8B81282F30E06D
:1023600081E090E0022E02C0880F991F0A94E2F7E4
:10237000809584238C9302C081E08983898128968B
:102380000FB6F894DEBF0FBECDBFCF91DF91089599
:10239000DF93CF93CDB7DEB728970FB6F894DEBFA3
:1023A0000FBECDBF8A836B834C8319828A818430B0
:1023B00008F0EFC08B81883008F0EBC08C81813051
:1023C00009F06FC08A81282F30E038872F838F81F2
:1023D00098858130910549F12F813885223031056A
:1023E0002CF48F819885009761F0D5C02F813885B6
:1023F0002230310571F18F81988583309105E9F1A3
:10240000CAC0AAE3B0E0EAE3F0E08081482F8B8104
:10241000282F30E081E090E0022E02C0880F991F43
:102420000A94E2F7842B8C93B6C0A7E3B0E0E7E30D
:10243000F0E08081482F8B81282F30E081E090E010
:10244000022E02C0880F991F0A94E2F7842B8C9306
:10245000A2C0A4E3B0E0E4E3F0E08081482F8B81E8
:10246000282F30E081E090E0022E02C0880F991FF3
:102470000A94E2F7842B8C938EC0A1E3B0E0E1E3F1
:10248000F0E08081482F8B81282F30E081E090E0C0
:10249000022E02C0880F991F0A94E2F7842B8C93B6
:1024A0007AC08C81882309F076C08A81282F30E099
:1024B0003E832D838D819E818130910559F12D813F
:1024C0003E81223031052CF48D819E81009769F088
:1024D00062C02D813E812230310589F18D819E813E
:1024E0008330910509F440C056C0AAE3B0E0EAE3A6
:1024F000F0E08081482F8B81282F30E081E090E050
:10250000022E02C0880F991F0A94E2F78095842357
:102510008C9341C0A7E3B0E0E7E3F0E08081482F6F
:102520008B81282F30E081E090E0022E02C0880FDE
:10253000991F0A94E2F7809584238C932CC0A4E31E
:10254000B0E0E4E3F0E08081482F8B81282F30E079
:1025500081E090E0022E02C0880F991F0A94E2F7F2
:10256000809584238C9317C0A1E3B0E0E1E3F0E011
:102570008081482F8B81282F30E081E090E0022E6F
:1025800002C0880F991F0A94E2F7809584238C93E8
:1025900002C081E08983898128960FB6F894DEBF56
:1025A0000FBECDBFCF91DF910895DF93CF93CDB70D
:1025B000DEB727970FB6F894DEBF0FBECDBF8A8374
:1025C0006B835D834C8319828A81843008F075C0E7
:1025D0008B81883008F071C08A81282F30E03F83DA
:1025E0002E834E815F814130510559F18E819F814B
:1025F0008230910534F42E813F812115310569F037
:102600005EC04E815F814230510579F18E819F819C
:102610008330910509F43DC052C0E9E3F0E08081C8
:10262000282F30E08B81882F90E0A90102C05595BA
:1026300047958A95E2F7CA018170EC81FD8180831C
:102640003EC0E6E3F0E08081282F30E08B81882FC8
:1026500090E0A90102C0559547958A95E2F7CA0115
:102660008170EC81FD8180832AC0E3E3F0E080810A
:10267000282F30E08B81882F90E0A90102C055956A
:1026800047958A95E2F7CA018170EC81FD818083CC
:1026900016C0E0E3F0E08081282F30E08B81882FA6
:1026A00090E0A90102C0559547958A95E2F7CA01C5
:1026B0008170EC81FD81808302C081E08983898102
:1026C00027960FB6F894DEBF0FBECDBFCF91DF9136
:1026D0000895DF93CF9300D000D00F92CDB7DEB72F
:1026E0008A836B8319828A81843098F58A81282FA6
:1026F00030E03D832C838C819D8181309105D1F028
:102700002C813D81223031052CF48C819D810097F4
:1027100061F021C02C813D812230310581F08C8116
:102720009D818330910581F016C0EAE3F0E08B8152
:10273000808311C0E7E3F0E08B8180830CC0E4E389
:10274000F0E08B81808307C0E1E3F0E08B81808340
:1027500002C081E0898389810F900F900F900F90C4
:102760000F90CF91DF910895DF93CF9300D000D0E9
:102770000F92CDB7DEB78A836B8319828A8184304A
:1027800098F58A81282F30E03D832C838C819D81B0
:1027900081309105D1F02C813D81223031052CF41E
:1027A0008C819D81009761F021C02C813D81223078
:1027B000310581F08C819D818330910581F016C0B7
:1027C000EBE3F0E08B81808311C0E8E3F0E08B81E4
:1027D00080830CC0E5E3F0E08B81808307C0E2E3F7
:1027E000F0E08B81808302C081E0898389810F9032
:1027F0000F900F900F900F90CF91DF910895DF937E
:10280000CF93CDB7DEB7A7E2B0E0E7E2F0E080819A
:1028100080648C93A7E2B0E0E7E2F0E080818F77FC
:102820008C93A7E2B0E0E7E2F0E080818F7D8C93AB
:10283000A6E2B0E0E6E2F0E0808181608C93A6E25F
:10284000B0E0E6E2F0E0808182608C93A6E2B0E046
:10285000E6E2F0E0808184608C93A6E2B0E0E6E2FC
:10286000F0E08081807E8C93CF91DF910895DF939B
:10287000CF9300D00F92CDB7DEB79B838A83A6E2B9
:10288000B0E0E6E2F0E0808180688C93A6E2B0E000
:10289000E6E2F0E0808180648C9388EC898303C059
:1028A000898181508983E6E2F0E080818295869576
:1028B00086958370882F90E081709070982F81E0CA
:1028C0008927882319F48981882351F789818823EE
:1028D00041F0E4E2F0E080819181EA81FB81918323
:1028E00080830F900F900F90CF91DF910895DF9329
:1028F000CF93CDB7DEB7A6E2B0E0E6E2F0E08081AC
:102900008F778C93CF91DF910895DF93CF9300D091
:10291000CDB7DEB79A838983E981FA81808183709C
:102920006FEF0E9469130F900F90CF91DF91089580
:10293000DF93CF9300D00F92CDB7DEB79A83898310
:102940006B83E981FA8180818470882389F0E98131
:10295000FA8180818370282F8B81882F90E0FC0181
:10296000E859FF4F9081822F692F0E94B41318C03D
:10297000E981FA8180818470882391F4E981FA8168
:1029800080818370282F8B81882F90E0FC01E8598B
:10299000FF4F8081982F9095822F692F0E94B4134A
:1029A0000F900F900F90CF91DF910895DF93CF9309
:1029B00000D0CDB7DEB79A838983E981FA8180811F
:1029C00083706FE00E946913E981FA8180818370CE
:1029D00060E00E94B4130F900F90CF91DF910895A3
:1029E000DF93CF93CDB7DEB7A8970FB6F894DEBFCD
:1029F0000FBECDBF9F8F8E8F68A349A32AA31D8EC4
:102A000089A1282F30E038A72FA38FA198A5009780
:102A100009F4A1C02FA138A52130310509F035C135
:102A20001D8E93C088A1282F30E03EA32DA38DA139
:102A30009EA1009751F02DA13EA12130310549F40E
:102A400080E061E00E94B41304C080E068E00E946E
:102A5000B41380E090E0A0EAB0E4898F9A8FAB8F46
:102A6000BC8F698D7A8D8B8D9C8D20E030E04AEF94
:102A700054E40E941F02DC01CB018D8B9E8BAF8B37
:102A8000B88F6D897E898F89988D20E030E040E88D
:102A90005FE30E94790388232CF481E090E09C8B13
:102AA0008B8B3FC06D897E898F89988D20E03FEFA9
:102AB0004FE757E40E94190318164CF5698D7A8D7B
:102AC0008B8D9C8D20E030E040E251E40E941F029B
:102AD000DC01CB01BC01CD010E944900DC01CB012E
:102AE0009C8B8B8B0FC088EC90E09A8B898B8989AB
:102AF0009A890197F1F79A8B898B8B899C89019729
:102B00009C8B8B8B8B899C89009769F714C06D898E
:102B10007E898F89988D0E944900DC01CB019C8BB6
:102B20008B8B8B899C89988B8F878F859889019750
:102B3000F1F7988B8F87EE8DFF8D8081837060E039
:102B40000E94B4138D8D8F5F8D8F9D8D8AA19817F4
:102B500008F468CF9AC01D8E93C088A1282F30E05A
:102B60003CA32BA38BA19CA1009751F02BA13CA1CE
:102B70002130310549F480E063E00E94B41304C0C1
:102B800080E06CE00E94B41380E090E0A0EAB0E442
:102B90008B879C87AD87BE876B857C858D859E8561
:102BA00020E030E04AEF54E40E941F02DC01CB0138
:102BB0008F839887A987BA876F81788589859A8559
:102BC00020E030E040E85FE30E94790388232CF4A2
:102BD00081E090E09E838D833FC06F8178858985F9
:102BE0009A8520E03FEF4FE757E40E94190318163B
:102BF0004CF56B857C858D859E8520E030E040E23C
:102C000051E40E941F02DC01CB01BC01CD010E94F6
:102C10004900DC01CB019E838D830FC088EC90E0DE
:102C20009C838B838B819C810197F1F79C838B83A1
:102C30008D819E8101979E838D838D819E810097DA
:102C400069F714C06F81788589859A850E9449004B
:102C5000DC01CB019E838D838D819E819A83898344
:102C600089819A810197F1F79A838983EE8DFF8D8F
:102C70008081837060E00E94B4138D8D8F5F8D8F93
:102C80009D8D8AA1981708F468CFA8960FB6F8947E
:102C9000DEBF0FBECDBFCF91DF910895DF93CF93FD
:102CA00000D0CDB7DEB79A838983E981FA8181812B
:102CB0008370E981FA819081692F41E00E94C811F7
:102CC0000F900F90CF91DF910895DF93CF9300D0B5
:102CD000CDB7DEB79A838983E981FA8181818470D7
:102CE000882389F0E981FA81818188608183E98183
:102CF000FA8181818370E981FA819081692F41E0B5
:102D00000E94BB1016C0E981FA81818184708823FA
:102D100081F4E981FA818181877F8183E981FA8168
:102D200081818370E981FA819081692F40E00E945E
:102D3000BB100F900F90CF91DF910895DF93CF9349
:102D400000D0CDB7DEB79A838983E981FA8181818A
:102D50008470882389F0E981FA818181877F81836A
:102D6000E981FA8181818370E981FA819081692FFB
:102D700040E00E94BB1016C0E981FA818181847015
:102D8000882381F4E981FA81818188608183E981E6
:102D9000FA8181818370E981FA819081692F41E014
:102DA0000E94BB100F900F90CF91DF910895DF9399
:102DB000CF9300D0CDB7DEB79A838983E981FA81BA
:102DC00081818470882379F1E981FA818181887019
:102DD000882389F4E981FA8181818370E981FA810C
:102DE0009081692F41E00E94BB10E981FA818181C5
:102DF000886081834BC0E981FA8181818870882352
:102E000009F444C0E981FA8181818370E981FA8102
:102E10009081692F40E00E94BB10E981FA81818195
:102E2000877F818333C0E981FA818181847088231F
:102E300069F5E981FA8181818870882389F0E981C7
:102E4000FA8181818370E981FA819081692F40E064
:102E50000E94BB10E981FA818181877F818316C03E
:102E6000E981FA8181818870882381F4E981FA817E
:102E700081818370E981FA819081692F41E00E940C
:102E8000BB10E981FA818181886081830F900F9066
:102E9000CF91DF910895DF93CF93CDB7DEB76097E1
:102EA0000FB6F894DEBF0FBECDBF988B8F87EF852E
:102EB000F8898181EF85F8899481692F41E00E942A
:102EC000BB1080E090E0A0E0B0E48B879C87AD87EA
:102ED000BE876B857C858D859E8520E030E04AEF3E
:102EE00054E40E941F02DC01CB018F839887A987DD
:102EF000BA876F81788589859A8520E030E040E83F
:102F00005FE30E94790388232CF481E090E09E83A4
:102F10008D833FC06F81788589859A8520E03FEF5A
:102F20004FE757E40E94190318164CF56B857C8512
:102F30008D859E8520E030E040E251E40E941F0232
:102F4000DC01CB01BC01CD010E944900DC01CB01B9
:102F50009E838D830FC088EC90E09C838B838B8154
:102F60009C810197F1F79C838B838D819E810197D2
:102F70009E838D838D819E81009769F714C06F8138
:102F8000788589859A850E944900DC01CB019E8362
:102F90008D838D819E819A83898389819A8101970E
:102FA000F1F79A838983EF85F8898181EF85F88924
:102FB0009481692F40E00E94BB1060960FB6F89490
:102FC000DEBF0FBECDBFCF91DF910895DF93CF93CA
:102FD00000D00F92CDB7DEB79A8389836B83E981E6
:102FE000FA818181E981FA819281692F40E00E9412
:102FF000BB10E981FA8180816B810E94B4138981C1
:103000009A810E944B170F900F900F90CF91DF91F4
:103010000895DF93CF9300D00F92CDB7DEB79A8398
:1030200089836B83E981FA818181E981FA819281C7
:10303000692F41E00E94BB10E981FA8180816B8198
:103040000E94B41389819A810E944B170F900F90B0
:103050000F90CF91DF910895DF93CF93CDB7DEB777
:10306000AC970FB6F894DEBF0FBECDBF9CA78BA761
:10307000EBA5FCA58181EBA5FCA59481692F41E01E
:103080000E94C811EBA5FCA58181EBA5FCA592814E
:10309000692F41E00E94C811EBA5FCA58181EBA539
:1030A000FCA59381692F41E00E94C811EBA5FCA506
:1030B0008181EBA5FCA59381692F40E00E94BB10A4
:1030C000EBA5FCA580816FEF0E94691380E090E082
:1030D000A0EFB1E48FA398A7A9A7BAA76FA178A57D
:1030E00089A59AA520E030E04AEF54E40E941F022F
:1030F000DC01CB018BA39CA3ADA3BEA36BA17CA1E0
:103100008DA19EA120E030E040E85FE30E947903BA
:1031100088232CF481E090E09AA389A33FC06BA19F
:103120007CA18DA19EA120E03FEF4FE757E40E94D4
:10313000190318164CF56FA178A589A59AA520E06A
:1031400030E040E251E40E941F02DC01CB01BC01EF
:10315000CD010E944900DC01CB019AA389A30FC0D5
:1031600088EC90E098A38F8F8F8D98A10197F1F74D
:1031700098A38F8F89A19AA101979AA389A389A166
:103180009AA1009769F714C06BA17CA18DA19EA1A3
:103190000E944900DC01CB019AA389A389A19AA1CD
:1031A0009E8F8D8F8D8D9E8D0197F1F79E8F8D8FC8
:1031B0008BA59CA568E30E94E61780E090E0A0E85C
:1031C000BFE3898F9A8FAB8FBC8F698D7A8D8B8D82
:1031D0009C8D20E030E04AEF54E40E941F02DC01A5
:1031E000CB018D8B9E8BAF8BB88F6D897E898F893C
:1031F000988D20E030E040E85FE30E947903882367
:103200002CF481E090E09C8B8B8B3FC06D897E8994
:103210008F89988D20E03FEF4FE757E40E94190314
:1032200018164CF5698D7A8D8B8D9C8D20E030E0E1
:1032300040E251E40E941F02DC01CB01BC01CD0140
:103240000E944900DC01CB019C8B8B8B0FC088EC6A
:1032500090E09A8B898B89899A890197F1F79A8BEB
:10326000898B8B899C8901979C8B8B8B8B899C8903
:10327000009769F714C06D897E898F89988D0E94A7
:103280004900DC01CB019C8B8B8B8B899C89988BB3
:103290008F878F8598890197F1F7988B8F878BA5FA
:1032A0009CA56CE00E94E61780E090E0A0E8BFE3F8
:1032B0008B879C87AD87BE876B857C858D859E853A
:1032C00020E030E04AEF54E40E941F02DC01CB0111
:1032D0008F839887A987BA876F81788589859A8532
:1032E00020E030E040E85FE30E94790388232CF47B
:1032F00081E090E09E838D833FC06F8178858985D2
:103300009A8520E03FEF4FE757E40E941903181613
:103310004CF56B857C858D859E8520E030E040E214
:1033200051E40E941F02DC01CB01BC01CD010E94CF
:103330004900DC01CB019E838D830FC088EC90E0B7
:103340009C838B838B819C810197F1F79C838B837A
:103350008D819E8101979E838D838D819E810097B3
:1033600069F714C06F81788589859A850E94490024
:10337000DC01CB019E838D838D819E819A8389831D
:1033800089819A810197F1F79A8389838BA59CA5FE
:1033900061E00E94E617AC960FB6F894DEBF0FBE50
:1033A000CDBFCF91DF910895DF93CF9300D0CDB7FC
:1033B000DEB79A83898389819A8161E00E94E6174A
:1033C0000F900F90CF91DF910895DF93CF9300D0AE
:1033D00000D0CDB7DEB79A8389837C836B83EB8182
:1033E000FC81208189819A81622F0E9409180F90A7
:1033F0000F900F900F90CF91DF910895DF93CF93AF
:1034000000D000D00F92CDB7DEB79B838A837D8337
:103410006C83198211C08981282F30E08C819D81B5
:10342000FC01E20FF31F20818A819B81622F0E94A1
:10343000091889818F5F89838981282F30E08C81E9
:103440009D81FC01E20FF31F8081882321F70F90FB
:103450000F900F900F900F90CF91DF910895DF9311
:10346000CF93CDB7DEB72E970FB6F894DEBF0FBE61
:10347000CDBF9D878C876E878E858A3048F48E8578
:10348000282F205D8C859D85622F0E94091849C0D8
:1034900089E089838981482F50E08E859AE0692FE1
:1034A0000E943226892F282FCE010296FC01E40FBC
:1034B000F51F20838981815089838E859AE0692F49
:1034C0000E9432268E878E85823020F78981882F50
:1034D00090E09C012F5F3F4FCE010296FC01E20F6E
:1034E000F31F8081882319F489818F5F8983898103
:1034F0008F5F898313C08981282F30E0CE01029627
:10350000FC01E20FF31F8081282F205D8C859D85B3
:10351000622F0E94091889818F5F898389818A308F
:1035200050F32E960FB6F894DEBF0FBECDBFCF91ED
:10353000DF910895DF93CF9300D000D000D0CDB7B6
:10354000DEB79A8389836B834C838B81282F30E08D
:103550003E832D838D819E81009731F02D813E81A8
:103560002130310551F011C08C81282F20588981DC
:103570009A81622F0E94E61708C08C81282F205460
:1035800089819A81622F0E94E61726960FB6F894D9
:10359000DEBF0FBECDBFCF91DF910895DF93CF93F4
:1035A00000D0CDB7DEB79A838983E981FA81808123
:1035B0006FE00E946913E981FA8180816FEF0E94B8
:1035C000B4130F900F90CF91DF910895DF93CF93B5
:1035D000CDB7DEB727970FB6F894DEBF0FBECDBFCD
:1035E0009E838D8381E08C838FEF8B831A8257C0FB
:1035F000ED81FE8180816A8140E00E94BB101982CA
:1036000040C0ED81FE8140818981982F9C5F9E01A1
:103610002C5F3F4F842F692FA9010E94D5128C8106
:10362000882361F50EC0ED81FE8140818981982F4C
:103630009C5F9E012C5F3F4F842F692FA9010E9440
:10364000D5128C81882379F3ED81FE8180816A8196
:1036500041E00E94BB108A81482F50E08981282FC9
:1036600030E0CA01880F991F880F991F820F931F9E
:10367000FC01EE58FF4F80818F8317C089818F5FD7
:1036800089838981843008F4BCCFED81FE818081FB
:103690006A8141E00E94BB108A818F5F8A838A81A0
:1036A000843008F4A5CF8B818F838F8127960FB646
:1036B000F894DEBF0FBECDBFCF91DF910895DF93A9
:1036C000CF9300D0CDB7DEB79A838983E981FA81A1
:1036D00081818370E981FA819081692F40E00E94A5
:1036E000C811E981FA8181818370E981FA81908131
:1036F000692F41E00E94BB100F900F90CF91DF9196
:103700000895DF93CF9300D000D0CDB7DEB79C8370
:103710008B83198215C0EB81FC8181818370EB81E1
:10372000FC8190819E012E5F3F4F692FA9010E946D
:10373000D5128A81813009F4198289818F5F89834A
:103740008981873940F38A810F900F900F900F90F5
:10375000CF91DF9108951F920F920FB60F9211240F
:103760008F93DF93CF93CDB7DEB7809106018F5F44
:1037700080930601809106018C3339F41092060182
:10378000809108018F5F80930801809108018C333C
:1037900039F410920801809107018F5F809307012F
:1037A00080910701883121F41092060110920701DF
:1037B000CF91DF918F910F900FBE0F901F901895B2
:1037C000DF93CF93CDB7DEB7E7970FB6F894DEBFA0
:1037D0000FBECDBF8FEF8D8FCE014E969CAB8BABC6
:1037E000A4EFB0E0BEABADABB6E0BFABEDA9FEA9B8
:1037F00000808DA99EA901969EAB8DABABA9BCA9FB
:103800000C92EBA9FCA93196FCABEBABFFA9F150F4
:10381000FFAB8FA9882351F70E94FC0E8FE0FE01B9
:10382000B496DF01982F1D929A95E9F78CA18C7FB1
:1038300081608CA388E090E098A78FA385E090E05A
:103840009AA789A7CE01849660ED73E00E94A90D26
:10385000A9E5B0E0E9E5F0E0808180618C93CE01DC
:1038600084960E949E0782E06FE30E94691382E0C3
:103870006FE30E94B41388E890E00E94851482E808
:1038800090E00E942C1887E890E00E94CE1A82E80F
:1038900090E029E830E0B9010E94FE1982E890E04A
:1038A00061E040E00E949A1A82E890E027E930E067
:1038B000B9010E94FE1987E890E00E94E61A8D8FF8
:1038C0008D8D8F3F09F43AC18D8D803351F5CE0136
:1038D0004E9666E00E94D12182E890E00E94D419C1
:1038E00082E890E029E830E0B9010E94FE1982E800
:1038F00090E061E040E00E949A1A82E890E027E9B7
:1039000030E0B9010E94FE1986E091E028E031E044
:1039100047E051E0FE017E96B9019F010E94C52556
:103920000DC182E890E00E94D41982E890E060E046
:1039300040E00E949A1A82E890E025EE30E0B9015A
:103940000E94FE1980E090E0AAEFB3E4898F9A8F7D
:10395000AB8FBC8F698D7A8D8B8D9C8D20E030E094
:103960004AEF54E40E941F02DC01CB018D8B9E8B39
:10397000AF8BB88F6D897E898F89988D20E030E07C
:1039800040E85FE30E94790388232CF481E090E013
:103990009C8B8B8B3FC06D897E898F89988D20E0B1
:1039A0003FEF4FE757E40E94190318164CF5698D55
:1039B0007A8D8B8D9C8D20E030E040E251E40E94B6
:1039C0001F02DC01CB01BC01CD010E944900DC01DA
:1039D000CB019C8B8B8B0FC088EC90E09A8B898BF2
:1039E00089899A890197F1F79A8B898B8B899C89B0
:1039F00001979C8B8B8B8B899C89009769F714C0EE
:103A00006D897E898F89988D0E944900DC01CB01E8
:103A10009C8B8B8B8B899C89988B8F878F859889C2
:103A20000197F1F7988B8F8782E890E00E94D41974
:103A300082E890E029E830E0B9010E94FE1982E8AE
:103A400090E061E040E00E949A1A82E890E027E965
:103A500030E0B9010E94FE1980E090E0AAEFB3E4E3
:103A60008B879C87AD87BE876B857C858D859E8582
:103A700020E030E04AEF54E40E941F02DC01CB0159
:103A80008F839887A987BA876F81788589859A857A
:103A900020E030E040E85FE30E94790388232CF4C3
:103AA00081E090E09E838D833FC06F81788589851A
:103AB0009A8520E03FEF4FE757E40E94190318165C
:103AC0004CF56B857C858D859E8520E030E040E25D
:103AD00051E40E941F02DC01CB01BC01CD010E9418
:103AE0004900DC01CB019E838D830FC088EC90E000
:103AF0009C838B838B819C810197F1F79C838B83C3
:103B00008D819E8101979E838D838D819E810097FB
:103B100069F714C06F81788589859A850E9449006C
:103B2000DC01CB019E838D838D819E819A83898365
:103B300089819A810197F1F79A8389830E94A11D57
:103B4000BACE0F931F93DF93CF93CDB7DEB7C8558F
:103B5000D0400FB6F894DEBF0FBECDBFFE01EB5ACA
:103B6000FF4F1182108208C4FE01EB5AFF4F808183
:103B7000918169969FAF8EAF69976996EEADFFAD63
:103B80006997E230F10509F4A6C169968EAD9FAD43
:103B90006997833091057CF46996EEADFFAD699726
:103BA000309711F169968EAD9FAD6997813091057F
:103BB00009F4EDC0D5C36996EEADFFAD6997E43069
:103BC000F10509F4ABC269968EAD9FAD699784305B
:103BD00091050CF412C26996EEADFFAD6997E53020
:103BE000F10509F42DC3BCC3FE01EB5AFF4F9081D0
:103BF00082E0692F40E00E94BB10809106019AE0AC
:103C0000692F0E943226892F282F88E890E0622FA2
:103C10000E949814FE01EF5AFF4F80E090E0A0E070
:103C2000BFE380839183A283B3838E01035B1F4F25
:103C3000FE01EF5AFF4F608171818281938120E004
:103C400030E04AEF54E40E941F02DC01CB01F8018E
:103C500080839183A283B383FE01E35BFF4F608186
:103C600071818281938120E030E040E85FE30E942F
:103C70007903882344F4FE01E55BFF4F81E090E087
:103C80009183808364C0FE01E35BFF4F608171819B
:103C90008281938120E03FEF4FE757E40E941903B0
:103CA00018160CF043C0FE01EF5AFF4F608171817E
:103CB0008281938120E030E040E251E40E941F02C3
:103CC000DC01CB018E01055B1F4FBC01CD010E94C1
:103CD0004900DC01CB01F801918380831FC0FE0104
:103CE000E75BFF4F88EC90E091838083FE01E75B08
:103CF000FF4F808191810197F1F7FE01E75BFF4F54
:103D000091838083DE01A55BBF4FFE01E55BFF4F22
:103D100080819181019711969C938E93FE01E55BC2
:103D2000FF4F808191810097D1F627C08E01055BFE
:103D30001F4FFE01E35BFF4F6081718182819381A0
:103D40000E944900DC01CB01F80191838083DE01F0
:103D5000A95BBF4FFE01E55BFF4F808191818D9391
:103D60009C93FE01E95BFF4F808191810197F1F700
:103D7000FE01E95BFF4F91838083FE01EB5AFF4F09
:103D8000908182E0692F41E00E94BB10E9C2FE01F0
:103D9000EB5AFF4F908182E0692F40E00E94BB10F8
:103DA000809106019AE0692F0E943226282F88E828
:103DB00090E0622F0E949814FE01ED5BFF4F80E0BF
:103DC00090E0A0E0BFE380839183A283B3838E0160
:103DD000015C1F4FFE01ED5BFF4F608171818281AD
:103DE000938120E030E04AEF54E40E941F02DC019E
:103DF000CB01F80180839183A283B383FE01FF96F8
:103E0000608171818281938120E030E040E85FE34E
:103E10000E94790388232CF481E090E09EAF8DAF5F
:103E200046C0FE01FF96608171818281938120E00E
:103E30003FEF4FE757E40E941903181664F5FE019F
:103E4000ED5BFF4F608171818281938120E030E0E2
:103E500040E251E40E941F02DC01CB01BC01CD0114
:103E60000E944900DC01CB019EAF8DAF0FC088ECF2
:103E700090E09CAF8BAF8BAD9CAD0197F1F79CAF01
:103E80008BAF8DAD9EAD01979EAF8DAF8DAD9EADCD
:103E9000009769F716C0FE01FF96608171818281EB
:103EA00093810E944900DC01CB019EAF8DAF8DADA7
:103EB0009EAD9AAF89AF89AD9AAD0197F1F79AAFF0
:103EC00089AFFE01EB5AFF4F908182E0692F41E0FC
:103ED0000E94BB1045C2FE01EB5AFF4F908182E069
:103EE000692F40E00E94BB10809108019AE0692F81
:103EF0000E943226892F282F88E890E0622F0E94A6
:103F0000981480E090E0A0E0BFE38DAB9EABAFAB38
:103F1000B8AF6DA97EA98FA998AD20E030E04AEF37
:103F200054E40E941F02DC01CB0189AB9AABABAB1E
:103F3000BCAB69A97AA98BA99CA920E030E040E834
:103F40005FE30E94790388232CF481E090E098AB32
:103F50008FA73FC069A97AA98BA99CA920E03FEF50
:103F60004FE757E40E94190318164CF56DA97EA976
:103F70008FA998AD20E030E040E251E40E941F029A
:103F8000DC01CB01BC01CD010E944900DC01CB0169
:103F900098AB8FA70FC088EC90E09EA78DA78DA54A
:103FA0009EA50197F1F79EA78DA78FA598A90197C8
:103FB00098AB8FA78FA598A9009769F714C069A936
:103FC0007AA98BA99CA90E944900DC01CB0198AB7E
:103FD0008FA78FA598A99CA78BA78BA59CA50197B8
:103FE000F1F79CA78BA7FE01EB5AFF4F908182E06F
:103FF000692F41E00E94BB10B3C1FE01EB5AFF4F95
:10400000908182E0692F40E00E94BB1080910801FE
:104010009AE0692F0E943226282F88E890E0622FCC
:104020000E94981480E090E0A0E0BFE38FA398A7DF
:10403000A9A7BAA76FA178A589A59AA520E030E025
:104040004AEF54E40E941F02DC01CB018BA39CA326
:10405000ADA3BEA36BA17CA18DA19EA120E030E009
:1040600040E85FE30E94790388232CF481E090E02C
:104070009AA389A33FC06BA17CA18DA19EA120E042
:104080003FEF4FE757E40E94190318164CF56FA154
:1040900078A589A59AA520E030E040E251E40E948D
:1040A0001F02DC01CB01BC01CD010E944900DC01F3
:1040B000CB019AA389A30FC088EC90E098A38F8FBF
:1040C0008F8D98A10197F1F798A38F8F89A19AA15D
:1040D00001979AA389A389A19AA1009769F714C0AF
:1040E0006BA17CA18DA19EA10E944900DC01CB01A6
:1040F0009AA389A389A19AA19E8F8D8F8D8D9E8D64
:104100000197F1F79E8F8D8FFE01EB5AFF4F908143
:1041100082E0692F41E00E94BB1022C1FE01EB5AF0
:10412000FF4F908182E0692F40E00E94BB10809198
:1041300007019AE0692F0E943226892F282F88E8EC
:1041400090E0622F0E94981480E090E0A0E0BFE32E
:10415000898F9A8FAB8FBC8F698D7A8D8B8D9C8D5B
:1041600020E030E04AEF54E40E941F02DC01CB0162
:104170008D8B9E8BAF8BB88F6D897E898F89988D43
:1041800020E030E040E85FE30E94790388232CF4CC
:1041900081E090E09C8B8B8B3FC06D897E898F89FD
:1041A000988D20E03FEF4FE757E40E94190318165F
:1041B0004CF5698D7A8D8B8D9C8D20E030E040E24E
:1041C00051E40E941F02DC01CB01BC01CD010E9421
:1041D0004900DC01CB019C8B8B8B0FC088EC90E0FD
:1041E0009A8B898B89899A890197F1F79A8B898BA8
:1041F0008B899C8901979C8B8B8B8B899C890097E1
:1042000069F714C06D897E898F89988D0E94490055
:10421000DC01CB019C8B8B8B8B899C89988B8F8746
:104220008F8598890197F1F7988B8F87FE01EB5A5C
:10423000FF4F908182E0692F41E00E94BB1090C047
:10424000FE01EB5AFF4F908182E0692F40E00E940F
:10425000BB10809107019AE0692F0E943226282F17
:1042600088E890E0622F0E94981480E090E0A0E03F
:10427000BFE38B879C87AD87BE876B857C858D85EB
:104280009E8520E030E04AEF54E40E941F02DC01EA
:10429000CB018F839887A987BA876F8178858985B5
:1042A0009A8520E030E040E85FE30E9479038823AC
:1042B0002CF481E090E09E838D833FC06F817885F0
:1042C00089859A8520E03FEF4FE757E40E94190364
:1042D00018164CF56B857C858D859E8520E030E039
:1042E00040E251E40E941F02DC01CB01BC01CD0180
:1042F0000E944900DC01CB019E838D830FC088ECB6
:1043000090E09C838B838B819C810197F1F79C8348
:104310008B838D819E8101979E838D838D819E816C
:10432000009769F714C06F81788589859A850E9406
:104330004900DC01CB019E838D838D819E819A8310
:10434000898389819A810197F1F79A838983FE0194
:10435000EB5AFF4F908182E0692F41E00E94BB1031
:10436000DE01AB5ABF4FFE01EB5AFF4F80819181B6
:10437000019611969C938E93FE01EB5AFF4F80811C
:104380009181863091050CF4EFCBC85ADF4F0FB600
:10439000F894DEBF0FBECDBFCF91DF911F910F917B
:1043A00008950F931F93DF93CF93CDB7DEB7CB550F
:1043B000D0400FB6F894DEBF0FBECDBFFE01E85A65
:1043C000FF4F91838083FE01E65AFF4F6083FE0119
:1043D000EA5AFF4F1082FE01EB5AFF4F8FEF8083A6
:1043E00082E890E00E94D41982E890E020EA30E070
:1043F000B9010E94FE19FE01EF5AFF4F80E090E0E4
:10440000A8ECB2E480839183A283B3838E01035B23
:104410001F4FFE01EF5AFF4F6081718182819381AE
:1044200020E030E04AEF54E40E941F02DC01CB019F
:10443000F80180839183A283B383FE01E35BFF4F86
:10444000608171818281938120E030E040E85FE308
:104450000E947903882344F4FE01E55BFF4F81E06D
:1044600090E09183808364C0FE01E35BFF4F608135
:1044700071818281938120E03FEF4FE757E40E94F2
:10448000190318160CF043C0FE01EF5AFF4F60816C
:1044900071818281938120E030E040E251E40E940A
:1044A0001F02DC01CB018E01055B1F4FBC01CD015A
:1044B0000E944900DC01CB01F801918380831FC079
:1044C000FE01E75BFF4F88EC90E091838083FE0163
:1044D000E75BFF4F808191810197F1F7FE01E75B78
:1044E000FF4F91838083DE01A55BBF4FFE01E55B3B
:1044F000FF4F80819181019711969C938E93FE01CD
:10450000E55BFF4F808191810097D1F627C38E0133
:10451000055B1F4FFE01E35BFF4F6081718182816C
:1045200093810E944900DC01CB01F80191838083D3
:10453000DE01A95BBF4FFE01E55BFF4F80819181EA
:1045400011969C938E93FE01E95BFF4F80819181D0
:104550000197F1F7FE01E95BFF4F91838083FEC273
:1045600087E890E00E94E61AFE01EB5AFF4F808335
:10457000FE01EB5AFF4F80818F3F91F3FE01EB5A12
:10458000FF4F80818F3F09F4BAC0FE01EB5AFF4F05
:104590008081833609F4B3C0FE01EA5AFF4F80815F
:1045A000282F30E0FE01E85AFF4F80819181DC0125
:1045B000A20FB31FFE01EB5AFF4F80818C93FE01C7
:1045C000EA5AFF4F8081282F30E0FE01E85AFF4F62
:1045D00080819181FC01E20FF31F8081FE01E95A85
:1045E000FF4F808382E890E09E01295A3F4FB90136
:1045F0000E94E519FE01ED5BFF4F80E090E0A8EC22
:10460000B2E480839183A283B3838E01015C1F4F48
:10461000FE01ED5BFF4F608171818281938120E01B
:1046200030E04AEF54E40E941F02DC01CB01F801A4
:1046300080839183A283B383FE01FF9660817181A1
:104640008281938120E030E040E85FE30E947903BB
:1046500088232CF481E090E09EAF8DAF46C0FE0130
:10466000FF96608171818281938120E03FEF4FE767
:1046700057E40E941903181664F5FE01ED5BFF4F25
:10468000608171818281938120E030E040E251E4D9
:104690000E941F02DC01CB01BC01CD010E94490038
:1046A000DC01CB019EAF8DAF0FC088EC90E09CAFDA
:1046B0008BAF8BAD9CAD0197F1F79CAF8BAF8DAD00
:1046C0009EAD01979EAF8DAF8DAD9EAD009769F702
:1046D00016C0FE01FF9660817181828193810E94E4
:1046E0004900DC01CB019EAF8DAF8DAD9EAD9AAF81
:1046F00089AF89AD9AAD0197F1F79AAF89AFFE0105
:10470000EA5AFF4F8081813009F07DC082E890E055
:104710000E94D41982E890E02EEA30E0B9010E94AC
:10472000FE1980E090E0A8ECB2E48DAB9EABAFAB9D
:10473000B8AF6DA97EA98FA998AD20E030E04AEF0F
:1047400054E40E941F02DC01CB0189AB9AABABABF6
:10475000BCAB69A97AA98BA99CA920E030E040E80C
:104760005FE30E94790388232CF481E090E098AB0A
:104770008FA73FC069A97AA98BA99CA920E03FEF28
:104780004FE757E40E94190318164CF56DA97EA94E
:104790008FA998AD20E030E040E251E40E941F0272
:1047A000DC01CB01BC01CD010E944900DC01CB0141
:1047B00098AB8FA70FC088EC90E09EA78DA78DA522
:1047C0009EA50197F1F79EA78DA78FA598A90197A0
:1047D00098AB8FA78FA598A9009769F714C069A90E
:1047E0007AA98BA99CA90E944900DC01CB0198AB56
:1047F0008FA78FA598A99CA78BA78BA59CA5019790
:10480000F1F79CA78BA7FE01EA5AFF4F8081833006
:1048100009F07DC082E890E00E94D41982E890E01F
:104820002AEB30E0B9010E94FE1980E090E0A8EC8C
:10483000B2E48FA398A7A9A7BAA76FA178A589A565
:104840009AA520E030E04AEF54E40E941F02DC0108
:10485000CB018BA39CA3ADA3BEA36BA17CA18DA117
:104860009EA120E030E040E85FE30E9479038823C6
:104870002CF481E090E09AA389A33FC06BA17CA1B6
:104880008DA19EA120E03FEF4FE757E40E9419035E
:1048900018164CF56FA178A589A59AA520E030E0FF
:1048A00040E251E40E941F02DC01CB01BC01CD01BA
:1048B0000E944900DC01CB019AA389A30FC088ECB8
:1048C00090E098A38F8F8F8D98A10197F1F798A30F
:1048D0008F8F89A19AA101979AA389A389A19AA1EF
:1048E000009769F714C06BA17CA18DA19EA10E94C5
:1048F0004900DC01CB019AA389A389A19AA19E8FCB
:104900008D8F8D8D9E8D0197F1F79E8F8D8FFE017E
:10491000EA5AFF4F8081853009F085C082E890E037
:104920000E94D41982E890E029ED30E0B9010E949C
:10493000FE1980E090E0A8ECB2E4898F9A8FAB8FEB
:10494000BC8F698D7A8D8B8D9C8D20E030E04AEF95
:1049500054E40E941F02DC01CB018D8B9E8BAF8B38
:10496000B88F6D897E898F89988D20E030E040E88E
:104970005FE30E94790388232CF481E090E09C8B14
:104980008B8B3FC06D897E898F89988D20E03FEFAA
:104990004FE757E40E94190318164CF5698D7A8D7C
:1049A0008B8D9C8D20E030E040E251E40E941F029C
:1049B000DC01CB01BC01CD010E944900DC01CB012F
:1049C0009C8B8B8B0FC088EC90E09A8B898B8989AC
:1049D0009A890197F1F79A8B898B8B899C8901972A
:1049E0009C8B8B8B8B899C89009769F714C06D8990
:1049F0007E898F89988D0E944900DC01CB019C8BB8
:104A00008B8B8B899C89988B8F878F859889019751
:104A1000F1F7988B8F8780E06C968FAF6C976C96D0
:104A20008FAD6C97A6C0FE01EB5AFF4F8081833695
:104A300009F08BC082E890E00E94D41982E890E0EF
:104A400029E830E0B9010E94FE1982E890E061E0B7
:104A500040E00E949A1A82E890E027E930E0B9012C
:104A60000E94FE1980E090E0A8ECB2E48B879C875E
:104A7000AD87BE876B857C858D859E8520E030E087
:104A80004AEF54E40E941F02DC01CB018F83988718
:104A9000A987BA876F81788589859A8520E030E07B
:104AA00040E85FE30E94790388232CF481E090E0E2
:104AB0009E838D833FC06F81788589859A8520E0AC
:104AC0003FEF4FE757E40E94190318164CF56B852A
:104AD0007C858D859E8520E030E040E251E40E9497
:104AE0001F02DC01CB01BC01CD010E944900DC01A9
:104AF000CB019E838D830FC088EC90E09C838B83D9
:104B00008B819C810197F1F79C838B838D819E81A2
:104B100001979E838D838D819E81009769F729C0BF
:104B20006F81788589859A850E944900DC01CB01D7
:104B30009E838D838D819E819A83898389819A81C9
:104B40000197F1F79A83898314C0DE01AA5ABF4FF7
:104B5000FE01EA5AFF4F80818F5F8C93FE01EA5A73
:104B6000FF4FDE01A65ABF4F90818C91891708F044
:104B7000F7CCC55ADF4F0FB6F894DEBF0FBECDBFDE
:104B8000CF91DF911F910F910895DF93CF93CDB710
:104B9000DEB728970FB6F894DEBF0FBECDBF9A835D
:104BA00089837C836B835E834D8338872F83EF817A
:104BB000F8858081882F90E09C01220F331FC90166
:104BC000880F991F880F991F820F931F282F8F819D
:104BD0009885FC0131968081820F8051ED81FE81A4
:104BE00080838F819885FC0132968081882F90E0A8
:104BF0009C01220F331FC901880F991F880F991F2D
:104C0000820F931F282F8F819885FC013396808116
:104C1000820F8051EB81FC8180838F819885FC011C
:104C200034968081882F90E09C01220F331FC901A8
:104C3000880F991F880F991F820F931F282F8F812C
:104C40009885FC0135968081820F8051E981FA8137
:104C5000808328960FB6F894DEBF0FBECDBFCF91EC
:104C6000DF910895991B79E004C0991F961708F009
:104C7000961B881F7A95C9F7809508952F923F92C9
:104C80004F925F926F927F928F929F92AF92BF925C
:104C9000CF92DF92EF92FF920F931F93CF93DF9308
:104CA000CDB7DEB7CA1BDB0B0FB6F894DEBF0FBE65
:104CB000CDBF09942A88398848885F846E847D84B2
:104CC0008C849B84AA84B984C884DF80EE80FD80B4
:104CD0000C811B81AA81B981CE0FD11D0FB6F8942A
:0E4CE000DEBF0FBECDBFED010895F894FFCFEB
:104CEE0000000000000000003F065B4F666D7D0770
:104CFE007F6F3738392F343536783132332D633074
:104D0E003D2B00020608070305544F20534554203F
:104D1E00434C4F434B2000505245535320302000FC
:104D2E00456E74657220486F7572733D2000456E36
:104D3E00746572204D696E3D2000456E746572205B
:104D4E005365633D20005072657373203D20546F90
:104D5E0020636F6E6669726D005468616E6B2055CC
:104D6E00203A2920002057726F6E672043686F69C2
:0A4D7E006365200023232323232371
:00000001FF
